:0300000002079460
:0C079400787FE4F6D8FD7581550207DB84
:1008200008490A0A0A0A0A0A0A0A082700000000F8
:1008300000000000083B0000000000000000033141
:100840002359500344000000033600000001430018
:10085000013A00014700022F00000121000134008D
:10086000013900C100013500C102C10104220000AC
:02087000000086
:1009BC00120AE41209F0120B5D7B007A00793112F5
:1009CC0008927B007A007944120A241209F08F25D0
:1009DC008E248D238C22120B3412000E1203501213
:0409EC00098480F505
:10000E00E543600302034F754301120B1D8F52E54A
:10001E00516552FF5552F548E552F45FF52685526B
:10002E0051AF397E00EF7008E54864047002D200CB
:10003E00EF4E7008E52664047002C200E52624FB2C
:10004E007003020169147003020316147003020395
:10005E002F2403600302034F300103020166E539CA
:10006E0064017021E5447004754423221544E5446F
:10007E00540F640F700FC3748094804008E544548D
:10008E00F04409F544AF397E00EF64027021E54576
:10009E007004754559221545E545540F640F700FD0
:1000AE00C3748094804008E54554F04409F545EF4B
:1000BE0064034E7021E5467004754659221546E5D7
:1000CE0046540F640F700FC3748094804008E54649
:1000DE0054F04409F546AF357E00EF64017021E51A
:1000EE00367004753623221536E536540F640F70BC
:1000FE000FC3748094804008E53654F04409F536F9
:10010E00EF64024E7021E5377004753759221537AA
:10011E00E537540F640F700FC3748094804008E568
:10012E003754F04409F537E5356403600302034F95
:10013E00E5387004753859221538E538540F640FB8
:10014E00600302034FC374809480500302034FE593
:10015E003854F04409F53822C2012230010302035B
:10016E0013E539640170400544E544540FFF7E00E9
:10017E00D39409748094804018E544C4540F9402BB
:10018E0074809480500B5344F074102544F54480D1
:10019E0016D3EF9403EE64809480400BE544C45470
:1001AE000F64027002F544E539640270400545E5BE
:1001BE0045540FFF7E00D39409748094804018E557
:1001CE0045C4540F940574809480500B5345F074BD
:1001DE00102545F5458016D3EF9409EE6480948082
:1001EE00400BE545C4540F64057002F545E53964CE
:1001FE000370400546E546540FFF7E00D394097404
:10020E008094804018E546C4540F94057480948001
:10021E00500B5346F074102546F5468016D3EF94D6
:10022E0009EE64809480400BE546C4540F6405705B
:10023E0002F546E535640170400536E536540FFF8C
:10024E007E00D39409748094804018E536C4540F10
:10025E00940274809480500B5336F074102536F54A
:10026E00368016D3EF9403EE64809480400BE5360F
:10027E00C4540F64027002F536E535640270400511
:10028E0037E537540FFF7E00D39409748094804075
:10029E0018E537C4540F940574809480500B53376F
:1002AE00F074102537F5378016D3EF9409EE64807D
:1002BE009480400BE537C4540F64057002F537E5A2
:1002CE00356403707C0538E538540FFF7E00D394F7
:1002DE0009748094804017E538C4540F94057480D7
:1002EE009480500A5338F074102538F53822D3EF25
:1002FE009409EE648094804048E538C4540F640538
:10030E00703FF53822C20122200113E5397032D236
:10031E00020535E53564047028F535C20222C201A6
:10032E002220011B0539E53964047015F539FB7A75
:10033E000079441208927B007A007931020A24C2B5
:02034E0001228A
:10035000E53A600302051F753A01FB7A0079311214
:100360000A24300203020468E539147003020414FD
:100370001470030204241470030204342403600381
:1003800002051F3000581209F08F258E248D238C12
:1003900022754D0A754C0A754B0A754A0A75490A49
:1003A000E4FBFA79207841120523EC4D4E4F60149E
:1003B000AF25AE24AD23AC221205FEEF75F00A8402
:1003C000F54E8003754E0AAF25AE24AD23AC221244
:1003D00005FEEF75F00A8485F04F75500C22E5316B
:1003E000C4540FF549E531540FF54A754B0BE5320E
:1003F000C4540FF54CE532540FF54D754E0BE533F3
:10040000C4540FF54FE533540FF5507B007A007953
:1004100044020A24C3E53094F4E52F94015002808D
:100420001E0204A8C3E53094F4E52F940150028025
:100430000E0204DFC3E53094F4E52F94015026E565
:1004400044C4540FF549E544540FF54AE545C454F6
:100450000FF54CE545540FF54DE546C4540FF54FE7
:10046000E546020514020519E53524FE60411460D5
:10047000752402600302051FC3E53094F4E52F9450
:10048000015025E536C4540FF549E536540FF54AB9
:10049000E537C4540FF54CE537540FF54DE538C436
:1004A000540FF54FE538806C75490A754A0A22C326
:1004B000E53094F4E52F94015025E536C4540FF54A
:1004C00049E536540FF54AE537C4540FF54CE53786
:1004D000540FF54DE538C4540FF54FE538803575A8
:1004E0004C0A754D0A22C3E53094F4E52F9401506F
:1004F00028E536C4540FF549E536540FF54AE5377B
:10050000C4540FF54CE537540FF54DE538C4540F7E
:10051000F54FE538540FF55022754F0A75500A22F1
:10098400E536B5310CE537B53207E538B53302D273
:100994000130011EC3E5349405748094805013C360
:1009A400E5219464748094805004753B0122E4F53D
:0809B4003B22E4F534F53B227F
:100B3400538E7F5389F0758A18758CFCC28DD28CC4
:050B4400D2A9D2AF228E
:03000B000206DC0E
:1006DC00C0E0C0F0C083C082C0D075D000C000C0E4
:1006EC0001C002C003C004C005C006C0070543E535
:1006FC0043640A7002F543053AAF3A7E00BE010628
:10070C00BFF403753A000547E54764087002F547E6
:10071C0030010C0521E52164C87007F521800375B3
:10072C0021000530E5307002052FFFAE2FBE0318F7
:10073C00BFE815752F007530003001020534E53423
:10074C0064057004F534C201743B2547F8E6FD7C62
:10075C0000AF471208D074492547F8E6FD7C0074B9
:10076C00272547F8E6FB7A00AF4712094AD007D095
:10077C0006D005D004D003D002D001D000D0D0D008
:08078C0082D083D0F0D0E032EE
:0E0B5D0000007F237E337DB6DDFEDEFCDFFA76
:010B6B002267
:100872000D0AC0F9A4B0999282F88090FFBFC60811
:0F0882001701020408102040800108000109FF3F
:100AE400E5A0541F4480F5A07580FF53A01FE5A026
:0D0AF400541F44A0F5A0E4F58053A01F227C
:100B1D00E4FF20B3027F0420B2027F0520B1027FE3
:060B2D000620B0027F0764
:010B3300229F
:1008D000ED4C600FA8077401088002C333D8FC42B6
:1008E00008800EA8077401088002C333D8FCF452B4
:1008F00008E50865096015E508F4F580E5A0541FD2
:0C0900004480F5A0F5A053A01F85080955
:01090C0022C8
:10094A007580FFE5A0541F44E0F5A053A01F74175B
:10095A002FF8E6F580E5A0541F44C0F5A053A01F68
:10096A00740A2DF8E6F580EB4A600353807FE5A010
:0A097A00541F44E0F5A053A01F2213
:100B0100E4FEEEC3940874809480500FC297EF13F3
:0B0B110092A3EFC313FFD2970E80E702
:010B1C0022B6
:100B4900C29300C29700D29300120B01AF05120B9A
:040B590001C2932220
:10090D00E4FDC29300C29700D29300120B01E4FFE5
:10091D00EFC39408748094805011C297EDC313FDFA
:10092D0030A303430580D2970F80E5C29300C29791
:0C093D0000D29700C2A300D2A300AF05B7
:01094900228B
:060892008B538A548955C6
:10089800E4FD7F8E120B49E4FCECC394037480944E
:1008A80080501EEC25E0FFC374849FFFAB53AA540D
:1008B800A9558C8275830012067FFD120B490C80A6
:0808C800D87D807F8E020B49F0
:060A24008B538A54895532
:100A2A00E4FCECC3940374809480501EEC25E0FF30
:100A3A00C374859FFF12090DAB53AA54A9558C8222
:0A0A4A00758300EF1206AC0C80D893
:010A5400227F
:040AC6007F057E002A
:100ACA00EF1FAA0670011E4A600FE4FDEDC3940CE5
:090ADA007480948050EA0D80F351
:010AE30022F0
:020A5500A907EF
:100A5700E4FBEBC39408748094805012C294E913AA
:100A67009294120AC6D294E9C313F90B80E47F0566
:050A77007E00020ACA26
:100AA300E4FBEBC39408748094805014C294ECC3A9
:100AB30013FCD294309403430480120AC60B80E2E1
:020AC300AF047E
:010AC500220E
:100A7C00C203D2947F0C7E00120ACAC2947F507EAD
:100A8C0000120ACAD2947F0A7E00120ACAA2949259
:060A9C0003120AC6A203CA
:010AA2002231
:1009F000120A7C7FCC120A557F44120A55120A7CD7
:100A00007FCC120A557FBE120A55120AA3A90712FB
:100A10000AA3EFAD01FCEC1205C5E4FBFA7980787E
:040A20004102052367
:10052000020674EC5D046005E85904700302066A73
:10053000120635580460F6EC4860F2EC7004FDFEDB
:10054000FF22C860DB2481C85009C39860025006AE
:100550000206719850CAF582E9294B4A7005AB82B0
:1005600002066075F0007C1A7880C3EF9BEE9AED6E
:1005700099400DC3EF9BFFEE9AFEED99FDE842F026
:10058000DC23ACF0D0E0FFD0E0FED0E0FDAB822079
:10059000E7101BEB60BAEC2CFCEF33FFEE33FEED03
:1005A00033FD02064CE803F830E705C0F075F000B3
:1005B000EF2FFFEE33FEED33FD40B830E7C280AAE7
:1005C00075F020800E75F010800575F0087D007EB6
:1005D000007F003392D530D5031206CEEC334010A5
:1005E000EF33FFEE33FEED33FDEC33FCD5F0ED22BF
:0E05F000E5F0247EA2D513CC92E7CDCEFF22FB
:1005FE00EDD2E7CD33EC3392D524814006E4FFFEF5
:10060E00FDFC22FCE4CFCECDCC24E0501174FF8053
:10061E00EDC3CC13CCCD13CDCE13CECF13CF0470F0
:07062E00F030D5DE0206CE1C
:10063500E9D2E7C933E833F892D5EDD2E7CD33EC0B
:0706450033FC5002B2D52284
:10064C00EC30E7100FBF000C0EBE00080DBD00040F
:10065C000BEB6014A2D5EB13FCED92E7FD2274FFBB
:10066C00FCFDFEFF22E480F8A2D574FF13FC7D8014
:03067C00E480EF28
:1007A0000209BCE493A3F8E493A34003F68001F2AA
:1007B00008DFF48029E493A3F85407240CC8C3335A
:1007C000C4540F4420C8834004F456800146F6DF29
:1007D000E4800B0102040810204080900820E47E91
:1007E000019360BCA3FF543F30E509541FFEE4931E
:1007F000A360010ECF54C025E060A840B8E493A3E5
:10080000FAE493A3F8E493A3C8C582C8CAC583CA0F
:10081000F0A3C8C582C8CAC583CADFE9DEE780BEC7
:010891000066
:10067F00BB010CE58229F582E5833AF583E0225030
:10068F0006E92582F8E622BBFE06E92582F8E2227A
:0D069F00E58229F582E5833AF583E4932294
:1006AC00F8BB010DE58229F582E5833AF583E8F084
:1006BC00225006E92582C8F622BBFE05E92582C830
:0206CC00F22218
:0E06CE00C3E49FFFE49EFEE49DFDE49CFC223D
:00000001FF
