:03000000020C0BE4
:0C0C0B00787FE4F6D8FD758176020C526B
:100F110044697374616E63653A2564636D0D0A00FB
:100D130008510A0A0A0A0A0A0A0A084600000000D9
:100D23000000000008260000000000000000014E43
:100D330000014500012E00014F0001440001430062
:090D430001221E0123000125001C
:100EE300120EA912000E120EFA120A30120B73120E
:070EF3000E2512000380F23E
:100A3000E54E6003020AD3754E01120C978F5AE5FA
:100A40005A6559FF555AF550E55AF45FF524855A11
:100A50005924F8601A14601F24FD603924FC605882
:100A6000240C706F0544E54464027067F54422E588
:100A700044706085432222755EFF755F0F756011BB
:100A80008543617B007A00792F12061D7B007A0076
:100A9000792F020E84E54464017038AF22D3EF94BD
:100AA000FF74809480500DEF94F57480948040041E
:100AB0007522FF22740A8017E54464017015C3E5AE
:100AC00022940A748094805004E4F5222274F6255E
:040AD00022F52222C7
:100B7300E5456003020C0A754501120D6B8F43E5D1
:100B830044146042046003020C0A75510B75520150
:100B9300E54375F06484FFFD7C00700575560A809B
:100BA300028F56E54375F00A8475F00A84AFF0EFBF
:100BB300700EED4C700575570A8007E4F5578002F7
:100BC3008F57E543803A75510B755202E52275F054
:100BD3006484FFFD7C00700575560A80028F56E51C
:100BE3002275F00A8475F00A84AFF0EF700EED4CB5
:100BF300700575570A8007E4F55780028F57E52281
:080C030075F00A8485F0582207
:100E2500E54414600B04700E754601E4F547800631
:100E3500754701E4F546E543D3952240057525013F
:100E45008003E4F525C3E52394C874809480500499
:080E5500E4F548227548012272
:08000300E52E7003752E0122A9
:10000E00538E7F5389F0758A18758CFCC28DD28CF5
:05001E00D2A9D2AF22BF
:100EFA00759850438E01438E0475D7C775D6FE4345
:070F0A008E10D2ACD2AF2221
:03000B00020AD412
:100AD400C0E0C0F0C083C082C0D075D000C000C0E8
:100AE40001C002C003C004C005C006C007054EE52E
:100AF4004E640A7002F54E0545AF457E00BE010600
:100B0400BFF403754500052EE52E64C87002F52E6A
:100B1400054FE54F64087002F54FE525600E052387
:100B2400AF237E00BE0108BF9005800075230074CA
:100B340046254FF8E6FD7C00AF4F120DB0745125E9
:100B44004FF8E6FD7C007426254FF8E6FB7A00AFEB
:100B54004F120DEBD007D006D005D004D003D0023D
:0F0B6400D001D000D0D0D082D083D0F0D0E032FA
:03002300020F3099
:010F3000328E
:100D4C000C0AC0F9A4B0999282F88090FFC10816E1
:0E0D5C0001020408102040800108000109FF78
:100EA900E5A0541F4480F5A07580FF53A01FE5A05D
:0D0EB900541F44A0F5A0E4F58053A01F22B3
:100C9700E4FF538EEFC2C4D2C2D2B5D2B420B3029E
:100CA7007F0420B2027F0520B1027F0620B0027FB9
:100CB70007D2C4C2C2D2B5D2B420B3027F0820B2D1
:100CC700027F0920B1027F0A20B0027F0BD2C4D273
:100CD700C2C2B5D2B420B3027F0C20B2027F0D206E
:100CE700B1027F0E20B0027F0FD2C4D2C2D2B5C2EA
:100CF700B420B3027F1020B2027F1120B1027F120D
:0B0D070020B0027F1375B0FF438E1078
:010D120022BE
:100DB000ED4C600FA8077401088002C333D8FC42D1
:100DC00008800EA8077401088002C333D8FCF452CF
:100DD00008E50865096013E508F4F580E5A0541FEF
:0A0DE0004480F5A053A01F85080908
:010DEA0022E6
:100DEB00E5A0541F44E0F5A07580FF53A01FE5A0BC
:100DFB00541F44C0F5A074162FF8E6F58053A01FBE
:100E0B00E5A0541F44E0F5A0740A2DF8E6F580EB3D
:0A0E1B004A600353807F53A01F229A
:080F21008F993099FDC299225D
:100E84008B5B8A5C895DAB5BAA5CA95D12052560FE
:100E940013055DE55D7002055C14F9120525FF126A
:050EA4000F2180E22295
:100EC600E4F55BC3E55B940874809480500ED29081
:0C0ED600120F29C290120F29055B80E763
:010EE20022ED
:100D6B0053890FE4F58BF58D120EC6D28E3091039D
:100D7B00308FFAC28E308F0AC28FE4F58DF58B7FE0
:100D8B00FF22AF8DEFFEAD8BEDFFE4F58DF58BAD57
:100D9B0007AC061201317B967A43798B783C1200B3
:040DAB002612016AA1
:010DAF002221
:060F290000007F21DFFE45
:010F2F00229F
:10002600EC4D6011E8497017ED33EC3304600DE4D4
:10003600FCFFFEFD22E933E8330470F80201D61214
:1000460001A158046009E4CC248150062850090215
:1000560001E02840030201DDC0E0EB4A7044B980AC
:1000660006D0E0FB0201CCEF4E701CBD8008EBFF12
:10007600EAFEE9FD80EBE98DF0A4FEE5F002010F52
:10008600E9CDF9EAFEEBFFEF89F0A4FCE5F0CE89B5
:10009600F0A42EFFE435F0CD89F0A42DFEE435F072
:1000A6008067EF4E7005BD80D780C3EF8BF0A4ACA0
:1000B600F0EE8BF0A42CFCE435F0F8EF8AF0A42CDB
:1000C600E5F038FCE433CB8DF0A42CFCE5F03BF8EE
:1000D600EE8AF0A42CFCE5F038F8E433CF89F0A4DE
:1000E6002CFCE5F038CF3400CE89F0A42FFFE5F0E4
:1000F6003EFEE433C98DF0A42EFEE5F039CD8AF03C
:10010600A42FFFE5F03EFEE43DFD33D0E0FB5007B3
:100116000BBB000F0201E0EC2CFCEF33FFEE33FECD
:06012600ED33FD0201B8FB
:10012C0075F020800E75F010800575F0087D007E4E
:10013C00007F003392D530D50312057DEC3340108F
:10014C00EF33FFEE33FEED33FDEC33FCD5F0ED2257
:0E015C00E5F0247EA2D513CC92E7CDCEFF2293
:10016A00EDD2E7CD33EC3392D524814006E4FFFE8D
:10017A00FDFC22FCE4CFCECDCC24E0501174FF80EC
:10018A00EDC3CC13CCCD13CDCE13CECF13CF047089
:07019A00F030D5DE02057D07
:1005C100E572245EF8E6057222785B300702785EF8
:1005D100E475F00112058B0205252000EB7F2ED278
:1005E100008018EF540F2490D43440D4FF30040B12
:1005F100EF24BFB41A0050032461FFE573600215B4
:10060100730576E5767002057530070D785BE47544
:10061100F00112058BEF02056B020E5D7403D20728
:100621008003E4C207F5728B5B8A5C895DE4F57334
:10063100F575F576E57360077F201205FC80F57589
:1006410074FFC201C200C202C203C205C206C208CF
:100651001205CAFF700D3007057F0012060DAF7637
:10066100AE7522B4255FC2D5C2041205CAFF24D0DB
:10067100B40A00501A75F00A787330D50508B6FF30
:100681000106C6A426F620D5047002D20380D9241F
:10069100CFB41A00EF5004C2E5D2040208FAD20125
:1006A10080C6D20080C0D20280BCD2D580BAD20529
:1006B10080B47F201205FC2002077401B57300404D
:1006C100F11205C1FF1205FC020635D208D20680DF
:1006D100951205C1FB1205C1FA1205C1F94A4B7009
:1006E1000679F17A097BFF20022EE573602A7E00EC
:1006F1008E8275830012053E60060EEE657470F001
:10070100C2D5EBC0E0EAC0E0E9C0E0EE12095AD080
:10071100E0F9D0E0FAD0E0FB120525FF60AAEBC0BA
:10072100E0EAC0E0E9C0E01205FCD0E02401F9D024
:10073100E03400FAD0E0FBE5740460DCD574D980C4
:1007410087D20280A212093D60F7E574700104129C
:1007510001EBA974600DE574600914F5741209E4E4
:10076100EF60F3EA30E702F404C3995077EAF42525
:10077100740430E701E404F574800D12093D60C191
:10078100EA057425741201EBEA7871F630E701E4A9
:10079100257404D574042005011412095AE4C0E03B
:1007A1001209E47871E6601320E70714F61205E4F4
:1007B100802204F6D0E014C0E07F001205E4E57465
:1007C10060071205DB1574800B3005031205DBD0C1
:1007D100E0020635D0E00480C512093D60A0E57451
:1007E100041201EB7871EAF6E57420050260010458
:0507F100240412095A66
:1007F60074FF04C0E01209E41205E4E57420050262
:1008060060031205DBD0E0B574E87F451205EE788B
:1008160071E67F2B30E7047F2DF404C0E01205FC5F
:10082600D0E075F00A84C0F01205E5D0E01205E5C7
:10083600020635791080027908C206C2088008D2FD
:10084600D5790A8004790AC2D5E574047002F57474
:10085600E4FAFDFEFF1205C1FC7B08200113120518
:10086600C1FD7B1030000A1205C1FE1205C1FF7BD7
:1008760020EC3382D592D55013C3E43000069FFF97
:10088600E49EFEE42001039DFDE49CFCE4CBF8C25B
:1008960001EC700CCFCECDCCE824F8F870F38017BD
:1008A600C3EF33FFEE33FEED33FDEC33FCEB33FBEE
:1008B600994002FB0FD8E9EB300105F8D0E0C448B7
:1008C600B201C0E00AEC4D4E4F78207B0070C2EAC0
:1008D600B5740040BCC0E012095CD0F0D0E0200145
:1008E60004C4C0E0C4B201C0F01205E5D0F0D5F0F2
:1008F600EB02063512059B06D25308395806A34C5F
:10090600069F42083D4F08454408454906B8430836
:100916004B55077C4607DA450746470A115006A796
:100926002D06AB2E06CE2B06AF2306CC2009FA2ABF
:10093600066748000006C6E574B4FF037574061220
:1009460005C1FC1205C1FD1205C1FE1205C1FF78E5
:100956006A02021A790AA2D5200314300509B910D1
:10096600020404B9080104A2D5200602500104209D
:1009760002689202B573005034C0E07F203003193C
:100986007F30A20272067205500F1209B3C202C26C
:1009960006C205C2087F30800F300503E9C0E012A9
:1009A60005FC300503D0E0F9D0E0B573CC3005176F
:1009B6007F30B9100C1205FC7F583004077F788011
:1009C60003B908031205FC3002057F2D0205FC7FE2
:1009D600202008F87F2B2006F322920280CF7F008A
:1009E600B407005005246AF8E6FF22286E756C6C81
:1009F6002900D2011205C13001F8C201787330D541
:100A06000108F60206672D504349581205C1240312
:100A1600B405004001E4900A0C931205ED743A12F5
:0A0A260005EDD203757304020839D0
:1001A100E9D2E7C933E833F892D5EDD2E7CD33ECA4
:0701B10033FC5002B2D5221D
:1001B800EC30E7100FBF000C0EBE00080DBD0004A8
:1001C8000BEB6014A2D5EB13FCED92E7FD2274FF54
:1001D800FCFDFEFF22E480F8A2D574FF13FC7D80AD
:0301E800E480EFC1
:1001EB00F920E72824F950037907E4F42402FB18DB
:1001FB00DBFDE624FB5014E9600DE4F618E604F68B
:0F020B00B40A08E4F6D9F57401F60A22C2D52226
:10021A00ED33EC3392D5FA602AB4FF33EDC2E77BB3
:10022A00FF60067A02793FE4227A02794820D504EF
:10023A007A027943224E614E002B494E46002D49DF
:10024A004E4600E47A08F608DAFC7B00740722E8D6
:10025A00C0E0ECC0E0EDC0E0EEC0E0EFC0E0EA755F
:10026A00F010A4CAABF075F04DA42BFBE435F0FCFA
:10027A00EA2410FAEB34C5FBEC34D9FCEDC2E7FFF3
:10028A0075F056A4F42411C5F0F434C58FF0A42AED
:10029A00E5F03BE43CF620E7141204E5D0E0FFD099
:1002AA00E0FED0E0FDD0E0FC1204188014F4041241
:1002BA0004E5D0E0FFD0E0FED0E0FDD0E0FC120083
:1002CA0026D0E0F8E6FAEDD2E7CD33EC332482FB10
:1002DA00E4C3CF33CFCE33CECD33CD33DBF37B077D
:1002EA0075F00A846004F6081B0AE5F0F6088FF038
:1002FA00740AA4FFACF08EF0740AA42CFEACF05081
:10030A00010C8DF0740AA42CFDE435F0F608DBDE4E
:03031A0074072243
:10031D000201D6E86480F8E933E83360110460F037
:10032D00ED33EC337009E8FCE9FDEAFEEBFF220446
:10033D0060DED3EB9FEA9EE99DE8C2E78CF0C2F741
:10034D0095F0400CE8CCF8E9CDF9EACEFAEBCFFB0D
:10035D001201A185D0F05804700320D5B3E80470C4
:10036D00075002B2D50201E092D5EC0460F7E4CC5F
:10037D00C0E0C398F8603B94186008400DD0E0FBD6
:10038D000201B8E4FBFAC9FC8028E830E406E4C9B0
:10039D00FBE4CAFCE830E305E4C9CACBFCE854072A
:1003AD006010F8C3E913F9EA13FAEB13FBEC13FC35
:1003BD00D8F130F52FC3E49CFCEF9BFFEE9AFEEDD8
:1003CD0099FDD0E0FBEF4E4D4C701222DB03020184
:1003DD00DDEC2CFCEF33FFEE33FEED33FDED30E7BE
:1003ED00EB0201B8EF2BFFEE3AFEED39FDD0E0FB4D
:1003FD0050130BBB00030201E0ED13FDEE13FEEFF6
:08040D0013FFEC13FC0201B81F
:100415000201E0EC5D046005E8590470030201D6B1
:100425001201A1580460F6EC4860F2EC7004FDFE80
:10043500FF22C860DB2481C85009C39860025006BA
:100445000201DD9850CAF582E9294B4A7005AB8255
:100455000201CC75F0007C1A7880C3EF9BEE9AED13
:1004650099400DC3EF9BFFEE9AFEED99FDE842F032
:10047500DC23ACF0D0E0FFD0E0FED0E0FDAB822085
:10048500E7101BEB60BAEC2CFCEF33FFEE33FEED0F
:1004950033FD0201B8E803F830E705C0F075F00058
:1004A500EF2FFFEE33FEED33FD40B830E7C280AAF3
:1004B5003F8000004120000042C80000447A00004F
:1004C500461C400047C35000497424004B189680D1
:1004D5004CBEBC205A0E1BCA6753C21C749DC5AEC8
:1004E500FB60065407601C2323120513EB54386088
:1004F500091204FF12050E120026ECF8EDF9EEFACA
:10050500EFCB22EB12050E80F1543803241C900426
:10051500B5FE93FC0EEE93FD0EEE930ECE93FF22E9
:100C1700020EE3E493A3F8E493A34003F68001F202
:100C270008DFF48029E493A3F85407240CC8C333DE
:100C3700C4540F4420C8834004F456800146F6DFAD
:100C4700E4800B0102040810204080900D13E47E1D
:100C5700019360BCA3FF543F30E509541FFEE493A2
:100C6700A360010ECF54C025E060A840B8E493A369
:100C7700FAE493A3F8E493A3C8C582C8CAC583CA94
:100C8700F0A3C8C582C8CAC583CADFE9DEE780BE4C
:010D6A000088
:10052500BB010689828A83E0225002E722BBFE02D4
:09053500E32289828A83E4932207
:10053E00BB010CE58229F582E5833AF583E0225072
:10054E0006E92582F8E622BBFE06E92582F8E222BC
:0D055E00E58229F582E5833AF583E49322D6
:10056B00BB010689828A83F0225002F722BBFE016F
:02057B00F32269
:0E057D00C3E49FFFE49EFEE49DFDE49CFC228F
:10058B00FAE6FB0808E6F925F0F618E6CA3AF62271
:10059B00D083D082F8E4937012740193700DA3A3EF
:1005AB0093F8740193F5828883E473740293686003
:0605BB00EFA3A3A380DF03
:100E5D00EFB40A07740D120E68740A309811A89930
:100E6D00B8130CC2983098FDA899C298B811F630F5
:070E7D0099FDC299F59922CD
:00000001FF
