:0300000002000EED
:0C000E00787FE4F6D8FD758109020055EA
:06010100010800010900E5
:080003001200F11200DC80FE86
:1000BD00EF24FB600E14600F1460102403700F7595
:0F00CD00A0802275A0A02275A0C02275A0E022FD
:1000F1007F051200BDE4F5801F1200BD7580FF224F
:1000DC00538E7F758901758AB0758C3CD2A9D2AFCD
:0500EC00C28DD28C2240
:03000B0002009A56
:10009A00C0E0758AB0758C3C0508E508640A7006EC
:1000AA00B280F5080509E509640A7004B287F50902
:0300BA00D0E03261
:10001A00020003E493A3F8E493A34003F68001F2F9
:10002A0008DFF48029E493A3F85407240CC8C333E7
:10003A00C4540F4420C8834004F456800146F6DFB6
:10004A00E4800B0102040810204080900101E47E44
:10005A00019360BCA3FF543F30E509541FFEE493AB
:10006A00A360010ECF54C025E060A840B8E493A372
:10007A00FAE493A3F8E493A3C8C582C8CAC583CA9D
:10008A00F0A3C8C582C8CAC583CADFE9DEE780BE55
:0101070000F7
:00000001FF
