:0E172E00120673120ABD120066120FAD80F58E
:03164B000120007B
:10139D007580FFE5A0541F4480F5A053A01FE4F510
:1013AD0080E5A0541F44A0F5A053A01F7580FFE554
:1013BD00A0541F44E0F5A053A01FE4F580E5A05410
:0913CD001F44C0F5A053A01F222B
:1013D600E4F580E5A0541F4480F5A053A01F758056
:1013E600FFE5A0541F44A0F5A053A01FE4F580E537
:1013F600A0541F44E0F5A053A01F7580FFE5A0543C
:091406001F44C0F5A053A01F22F1
:0E17100000007F057E347DC3DDFEDEFCDFFAC7
:01171E0022A8
:08177E007F6C7E91DEFEDFFCB2
:011786002240
:1016E000438E0475D72075D6D1438E1043AF0422A4
:0300630002074B46
:10074B00C0E0C0F0C083C082C0D075D000C000C074
:10075B0001C002C003C004C005C006C00712179732
:10076B0090000A120627AAF0F912066D0531E53141
:10077B0070020530641445307007F530F5314320B5
:10078B00010533E53370020532646445327007F5B9
:10079B0032F5334320020535E53570020534FFAEE3
:1007AB0034BE010CBFF409753400753500432004C9
:1007BB000537E53770020536FFAE36BE010CBFF4C8
:1007CB00097536007537004320080539E539700285
:1007DB000538FFAE38BE030CBFE809753800753914
:1007EB0000432010053BE53B7002053A64C8453ACF
:1007FB007007F53AF53B432020D007D006D005D043
:10080B0004D003D002D001D000D0D0D082D083D07E
:04081B00F0D0E03207
:0D175800C0F9A4B0999282F88090FF86BF7E
:071797007B007A00793C227F
:100003007580FFE5A0541F44E0F5A053A01FAF4443
:100013007401A807088002C333D8FCF580E5A05417
:100023001F44C0F5A053A01FE5446545600C743C14
:100033002544F8E690175893800C743C2544F8E661
:1000430090175893547FF580E5A0541F44E0F5A022
:1000530053A01F0544E544C394084003E4F5442238
:10152300753C0A753D0A753E0A753F0A75400A7592
:10153300410A75420A75430A7545FF7546007547AA
:02154300032281
:0415FD00D2A07F05F4
:10160100000000000000000000000000000000AE2B
:06161100071FEE70EB2242
:0F171F00D2A11215FDC2A17F05121601C2A02290
:0C177200C2A11215FDD2A17F05021601D4
:0214A800AD078E
:1014AA00E4FCC2A07F05121601ED30E704D2A18048
:1014BA0002C2A17F05121601D2A0ED25E0FD7F052B
:0914CA001216010CBC08DBC2A0E3
:0114D30022F6
:1016BC001215FDA2A1E433FDC2A07F05121601AFE5
:0116CC000518
:0116CD0022FA
:1015C400E4FC1215FDED25E0FD30A103430501C245
:0C15D400A07F051216010CBC08E8AF0552
:0115E00022E8
:10167D00C2A0EF24FF92A17F051216011215FDC223
:08168D00A0D2A17F05021601A5
:1014D4008F1C8D1D12171F7FA01214A81216BCAFEB
:1014E4001C1214A81216BCAF1D1214A81216BC129A
:0814F400177212177E02177E29
:021478008F1CC7
:10147A0012171F7FA01214A81216BCAF1C1214A8B0
:10148A001216BC12171F7FA11214A81216BC12152D
:0D149A00C48F1D7F0112167D121772AF1D49
:0114A7002222
:10164E000122AA01233301240001250001260001F5
:02165E00270063
:10067300E4F5181217978B198A1A891B121523127E
:1006830017651215871213D61217101217101217A7
:100693001012171012171012171012139D1216E0D2
:1006A3001217001216F0121664121710E4FF121438
:1006B300788F180518121710AD18E4FF1214D4120E
:1006C30017A590000E120627AAF0F912066DD2AFF5
:1006D300AB19AA1AA91B740B12059EE518D39463D0
:1006E3004011E51875F06484AB19AA1AA91B900090
:1006F30005800BAB19AA1AA91B900005740A1205F1
:10070300B0E518D394094017E51875F06484E5F053
:1007130075F00A84AB19AA1AA91B900006800BABCB
:1007230019AA1AA91B900006740A1205B0E51875D8
:10073300F00A84AB19AA1AA91B900007E5F0120569
:07074300B07528FF752903C2
:01074A00228C
:100C9B001217978B1B8A1C891D12179790000974CA
:100CAB00FF1205B012179E900001120571AB1BAA23
:100CBB001CA91D12059EAB1BAA1CA91D900001743B
:100CCB000A1205B0900002740A1205B0900003746A
:100CDB000A1205B0900004740A1205B09000057456
:100CEB000A1205B0900006740A1205B0E522AB1B80
:100CFB00AA1CA91D900007B4AA03E4800274011278
:100D0B0005B0852280E5A0541F4480F5A053A01F99
:100D1B006322FF12179E90000174FF1205B0752815
:010D2B00FFC8
:010D2C0022A4
:100BFF001217978B1B8A1C891D7580FFE5A0541F48
:100C0F004480F5A053A01F12179E9000011205718A
:100C1F00AB1BAA1CA91D12059EAB1BAA1CA91D90DC
:100C2F000001740A1205B0900002740A1205B09008
:100C3F000003740A1205B0900004740A1205B090F4
:100C4F000006E41205B0900007E41205B0121797E2
:100C5F0090000974051205B0AF23121567E52375CF
:100C6F00F03384AB1BAA1CA91D9000051205B074AC
:100C7F00332523F523D394CC400375233312179ECA
:0B0C8F0090000174FF1205B07528FFF3
:010C9A002237
:1010A2001217978B1B8A1C891D7580FFE5A0541FA0
:1010B2004480F5A053A01FE529B4010575290380DA
:1010C2000375290112179790000974FF1205B012D7
:1010D200179E900001120571AB1BAA1CA91D1205D7
:1010E2009EAB1BAA1CA91D900001740A1205B090A8
:1010F2000002E5291205B0900003740A1205B090AF
:101102000004740A1205B012179E90000174FF12B7
:0511120005B0E4F52822
:0111170022B5
:101118001217978B1B8A1C891D7580FFE5A0541F29
:101128004480F5A053A01F12179790000974FF126E
:1011380005B012179E900001120571AB1BAA1CA9DD
:101148001D12059EAB1BAA1CA91D900001740A1252
:1011580005B0900002740A1205B0900003740A12D8
:1011680005B0900004740A1205B012179E90000191
:0811780074FF1205B075280197
:01118000224C
:101181001217978B1B8A1C891D7580FFE5A0541FC0
:101191004480F5A053A01F121797900009740512FF
:1011A10005B012179E900001120571AB1BAA1CA974
:1011B1001D12059EAB1BAA1CA91D900001740A12E9
:1011C10005B0900002740A1205B0900003740A126F
:1011D10005B012179E90000174FF1205B075280228
:0111E10022EB
:100DB9001217978B1B8A1C891D7580FFE5A0541F8C
:100DC9004480F5A053A01F12179790000974FF12D1
:100DD90005B012179E900001120571AB1BAA1CA940
:100DE9001D12059EAB1BAA1CA91D900001740A12B5
:100DF90005B0900002740A1205B0900003740A123B
:100E090005B0900004740A1205B0900005740A1226
:100E190005B0900006740A1205B0900007E41205A7
:0F0E2900B012179E90000174FF1205B07528FFDC
:010E38002297
:1008C8001217978B1B8A1C891D7580FFE5A0541F82
:1008D8004480F5A053A01F12179790000974FF12C7
:1008E80005B012179E900001120571AB1BAA1CA936
:1008F8001D12059EAB1BAA1CA91D900001740A12AB
:1009080005B0900002740A1205B0900003740A1230
:1009180005B0900004740A1205B0900005740A121C
:1009280005B0900006740A1205B0E524AB1BAA1C9A
:10093800A91D9000077002800274011205B0852479
:1009480080E5A0541F44A0F5A053A01FE52470051E
:100958007524108003E4F52412179E90000174FF9B
:060968001205B07528FF26
:01096E002266
:10096F001217978B1B8A1C891D7580FFE5A0541FDA
:10097F004480F5A053A01F12179790000974FF121F
:10098F0005B012179E900001120571AB1BAA1CA98E
:10099F001D12059EAB1BAA1CA91D900001740A1203
:1009AF0005B0900002740A1205B0900003740A1289
:1009BF0005B0900004740A1205B0900005740A1275
:1009CF0005B0900006740A1205B0E525AB1BAA1CF2
:1009DF00A91D9000077002800274011205B08525D1
:1009EF0080E5A0541F44A0F5A053A01FE525700576
:1009FF007525408003E4F52512179E90000174FFC2
:060A0F001205B07528FF7E
:010A150022BE
:10123D001217978B1B8A1C891D7580FFE5A0541F03
:10124D004480F5A053A01F12179790000974FF1248
:10125D0005B012179E900001120571AB1BAA1CA9B7
:10126D001D12059EAB1BAA1CA91D900001740A122C
:10127D0005B0900002740A1205B012179E9000017D
:08128D0074FF1205B07528037F
:011295002236
:100A16001217978B1B8A1C891D7580FFE5A0541F32
:100A26004480F5A053A01F12179790000974FF1277
:100A360005B012179E900001120571AB1BAA1CA9E6
:100A46001D12059EAB1BAA1CA91D900001740A125B
:100A560005B0900002740A1205B0900003740A12E1
:100A660005B0900004740A1205B0900005740A12CD
:100A760005B0900006740A1205B0E526AB1BAA1C49
:100A8600A91D9000077002800274011205B0852628
:100A960080E5A0541F44A0F5A053A01FE5267005CD
:100AA6007526208003E4F52612179E90000174FF38
:060AB6001205B07528FFD7
:010ABC002217
:10081F001217978B1B8A1C891D7580FFE5A0541F2B
:10082F004480F5A053A01F12179790000974FF1270
:10083F0005B0AB1BAA1CA91D740112059EAB1BAA08
:10084F001CA91DF582758300E41205B09000027497
:10085F000A1205B0900003740A1205B0E527A2E34F
:10086F00E4339000041205B0E527A2E2E4339000D0
:10087F00051205B0E527A2E1E4339000061205B09A
:10088F00E52713E4339000071205B0E58054A04527
:10089F0027F580E5A0541F44A0F5A053A01F0527FE
:1008AF00E527C394104003E4F52712179E9000012B
:0808BF0074FF1205B07528FF5B
:0108C700220E
:101028001217978B1B8A1C891D7580FFE5A0541F1A
:101038004480F5A053A01F12179790000974FF125F
:1010480005B0AB1BAA1CA91D740112059EAB1BAAF7
:101058001CA91DF5827583001205B0900002740A60
:101068001205B0900003740A1205B0900004740AC7
:101078001205B0900005740A1205B0900006740AB3
:101088001205B0900007740A1205B012179E90005E
:091098000174FF1205B07528FF78
:0110A100222C
:1011E2001217978B1B8A1C891D7580FFE5A0541F5F
:1011F2004480F5A053A01F12179790000974FF12A4
:1012020005B0AB1BAA1CA91D740112059EAB1BAA3B
:101212001CA91DF582758300041205B090000274AA
:101222000A1205B0900005740C1205B012179E90B8
:0A123200000174FF1205B0752804D6
:01123C00228F
:100E39001217978B1B8A1C891D7580FFE5A0541F0B
:100E49004480F5A053A01F12179790000974FF1250
:100E590005B0AB1BAA1CA91D740112059EAB1BAAE8
:100E69001CA91DF58275830074031205B090000258
:100E7900740A1205B0900003740A1205B0900004B8
:100E8900740A1205B0900005740A1205B0900006A4
:100E9900740A1205B0900007740A1205B012179E61
:0B0EA90090000174FF1205B07528FFD7
:010EB400221B
:100EB5001217978B1B8A1C891D7580FFE5A0541F8F
:100EC5004480F5A053A01F12179790000974FF12D4
:100ED50005B0AB1BAA1CA91D740112059EAB1BAA6C
:100EE5001CA91DF58275830074041205B0900002DB
:100EF500740A1205B0900003740A1205B09000043C
:100F0500740A1205B0900005740A1205B090000627
:100F1500740A1205B0900007740A1205B012179EE4
:0B0F250090000174FF1205B07528FF5A
:010F3000229E
:100F31001217978B1B8A1C891D7580FFE5A0541F12
:100F41004480F5A053A01F12179790000974FF1257
:100F510005B0AB1BAA1CA91D740112059EAB1BAAEF
:100F61001CA91DF58275830074051205B09000025D
:100F7100740A1205B0900003740A1205B0900004BF
:100F8100740A1205B0900005740A1205B0900006AB
:100F9100740A1205B0900007740A1205B012179E68
:0B0FA10090000174FF1205B07528FFDE
:010FAC002222
:100FAD00E5287010E52030E171AF291214458F2A24
:100FBD005320FD22E528B4010EE52030E25C12132A
:100FCD00208F2B5320FB22E528B4021DE52030E3B2
:100FDD00491212DEE4FBFA79C87842120393120427
:100FED00D78E2C8F2D5320F722E528B40310E52042
:100FFD0030E4271216CE8E2E8F2F5320EF22E528A8
:10100D00B40417E52030E5121217A590000C120656
:0B101D0027AAF0F912066D5320DF2215
:100066001217978B188A19891AE5287050E52AD332
:100076009463400BE52A75F06484900005800BAB11
:1000860018AA19A91A900005740A1205B0E52AD310
:1000960094094017E52A75F06484E5F075F00A8442
:1000A600AB18AA19A91A900006800BAB18AA19A9B1
:1000B6001A900006740A1205B0E52A8062E52864E3
:1000C600016003020155E52BF46066E52BD39463CA
:1000D6004011E52B75F06484AB18AA19A91A900093
:1000E60005800BAB18AA19A91A900005740A120507
:1000F600B0E52BD394094017E52B75F06484E5F041
:1001060075F00A84AB18AA19A91A900006800BABE1
:1001160018AA19A91A900006740A1205B0E52B75DB
:10012600F00A84AB18AA19A91A900007E5F0020391
:100136007EAB18AA19A91A90000574091205B09089
:10014600000674091205B0900007740902037EE5E3
:100156002864026003020220D3E52D94E7E52C947F
:10016600034017AE2CAF2D7C037DE81205D2AB18E9
:10017600AA19A91A900004EF800BAB18AA19A91A9C
:10018600900004740A1205B0D3E52D9463E52C940F
:10019600004024AE2CAF2D7C037DE81205D27E00F4
:1001A6007F64CFCDCFCECCCE1205D2AB18AA19A97B
:1001B6001A900005EF800BAB18AA19A91A90000532
:1001C600740A1205B0D3E52D9409E52C9400402459
:1001D600AE2CAF2D7C007D641205D27E007F0ACF47
:1001E600CDCFCECCCE1205D2AB18AA19A91A900043
:1001F60006EF800BAB18AA19A91A900006740A120A
:1002060005B0AE2CAF2D7C007D0A1205D2AB18AA24
:1002160019A91A900007ED02037EE528640360031E
:10022600020327D3E52F940FE52E94274017AE2E11
:10023600AF2F7C277D101205D2AB18AA19A91A90E8
:100246000003EF800BAB18AA19A91A900003740AD1
:100256001205B0D3E52F94E7E52E94034024AE2E85
:10026600AF2F7C277D101205D27E037FE8CFCDCF3E
:10027600CECCCE1205D2AB18AA19A91A900004EF5B
:10028600800BAB18AA19A91A900004740A1205B0BB
:10029600D3E52F9463E52E94004024AE2EAF2F7C39
:1002A600037DE81205D27E007F64CFCDCFCECCCEC3
:1002B6001205D2AB18AA19A91A900005EF800BAB4C
:1002C60018AA19A91A900005740A1205B0D3E52FC9
:1002D6009409E52E94004024AE2EAF2F7C007D6459
:1002E6001205D27E007F0ACFCDCFCECCCE1205D25C
:1002F600AB18AA19A91A900006EF800BAB18AA1919
:10030600A91A900006740A1205B0AE2EAF2F7C0013
:100316007D0A1205D2AB18AA19A91A900007ED801A
:1003260057E528640470541217A59000021205714F
:10033600AB18AA19A91A9000031205B01217A590B6
:100346000003120571AB18AA19A91A900004120528
:10035600B01217A5900004120571AB18AA19A91AB4
:100366009000061205B01217A5900005120571AB94
:1003760018AA19A91A9000070205B0E528F4600C1E
:0C0386001215231217651215877528FF49
:010392002248
:100ABD0012179E8B188A19891AE52030E00F9000C5
:100ACD0002120627AAF0F912066D5320FEAB18AAE2
:100ADD0019A91A900001120571B410005067900AFF
:100AED00F2F8282873020B22020B25020B28020BA9
:100AFD002B020B2E020B31020B34020B37020B3A79
:100B0D00020B3D020B40020B43020B46020B490246
:100B1D000B4C020B4F020C9B020BFF0210A2021199
:100B2D0018021181020DB90208C802096F02123DA7
:100B3D00020A1602081F0210280211E2020E3902E3
:100B4D000EB5020F3112179E90000174FF1205B001
:010B5D002275
:031660000148003E
:07179E007B007A007949226B
:1015E100E5B0543FFF30C20543074080035307BFB6
:0B15F10030C405430780800353077FD0
:0115FC0022CC
:0817870075B00FC2C2C2C422FA
:08178F0075B0F0D2C2D2C422F1
:100B5E00E54914602214604C147003020BF2240356
:100B6E006003020BFE12178F1215E1EF64F0700393
:100B7E00020BFE7549012212178F1215E1EF249018
:100B8E00601B24C0601224E0600924F0705F754879
:100B9E0004800D754803800875480280037548016E
:100BAE00754902221217871215E1EF24F9601C24F1
:100BBE00FC601224FE600814701CE548148010E5D9
:100BCE00482403800AE54824078004E548240BF5F1
:100BDE004A7549038003E4F549E54AD3940F401062
:100BEE00754AFF221217871215E1BF0F03E4F5496C
:010BFE0022D4
:0D176500754B0B754C5E754AFFE4F549228B
:1016640012171F7F901214A81216BC7F431214A8DD
:091674001216BC12177202177E57
:021445008F18FE
:1014470012171F7F901214A81216BCE5184440FF0C
:101457001214A81216BC12171F7F911214A8121685
:10146700BC1215C48F197F0112167D121772AF199E
:011477002252
:101567008F1E12171F7F901214A81216BC7F4012ED
:1015770014A81216BCAF1E1214A81216BC021772BA
:1016F000538EBF53890FE4F58BF58DC28FC28E22B6
:10154500D290121560C290121560D290121560C229
:0B15550090121560D290121560C29039
:0615600000007F28DFFE01
:011566002262
:0E173C00C2AF121545121559121545D2AF2233
:10132000E4FDFC12173CD28E309103308FFAC28E4E
:10133000308F0AC28FE4F58DF58B7FFF22AF8DEFE2
:10134000AD8BFCC28FE4F58DF58BAE04AF051204B6
:0F1350009E7B967A43798B783C1203931204D7D5
:01135F00226B
:041617007F057E00CD
:10161B00EF1FAA0670011E4A600BE4FDEDC3940C8C
:05162B0050EE0D80F7F8
:011630002297
:0215A600A90793
:1015A800E4FBC294E9139294121617D294E9C31378
:0C15B800F90BBB08ED7F057E0002161B3E
:10163100E4FBC294ECC313FCD294309403430480C2
:091641001216170BBB08EBAF04F5
:01164A00227D
:1014FC00C208D2947F0C7E0012161BC2947F507EC1
:10150C000012161BD2947F0A7E0012161BA2949214
:06151C0008121617A208D8
:0115220022A6
:1012DE001214FC7FCC1215A67F441215A67FC87E71
:1012EE000012161B1214FC7FCC1215A67FBE12150F
:1012FE00A6121631A907121631EF540FFEE9FFE4BC
:10130E00AD07AC0612049EE4FBFA7980783D120319
:01131E00933B
:01131F0022AB
:10170000538E7F438904E4F58CF58AD28CC28D22F6
:1016CE00C28CAF8CEFFEAD8AEDFFE4F58CF58AD2BD
:0116DE008C7F
:0116DF0022E8
:0E174A0080828486888A8C81838587898B8D36
:0717A5007B007A00790822A5
:1016A900E4FEC297EF1392A3EFC313FFD2970EBEC6
:0216B90008F037
:0116BB00220C
:10169500C29300C29700D293001216A9AF05121685
:0416A500A9C2932221
:10140F00E4FDC29300C29700D293001216A9E4FF25
:10141F00C297EDC313FD30A303430580D2970FBFCF
:10142F0008EEC29300C293C29700D29700C2A300E6
:05143F00D2A300AF057F
:011444002285
:101296007BFF7A177951E4FC120558FF12140F747C
:1012A6001C2CF8A607740129F9E43AFA0CBC03E8E9
:1012B600E51EC4540FF508E51E540FF509E51DC4D7
:1012C600540FF50AE51D540FF50BE51CC4540FF534
:0712D6000CE51C540FF50D9F
:0112DD0022EE
:10136000E4FD7F8E12169590174AE493FFE512C4B0
:1013700054F04513FD121695A3E493FFE510C454F1
:10138000F04511FD121695A3E493FFE50EC454F049
:0D139000450FFD1216957D807F8E0216958B
:10158700750E02750F03751005751109751205E4BF
:0F159700F51375141275159675161375176022D6
:10039300EC4D6011E8497017ED33EC3304600DE464
:1003A300FCFFFEFD22E933E8330470F80205431233
:1003B300050E58046009E4CC248150062850090234
:1003C300054D28400302054AC0E0EB4A7044B9805A
:1003D30006D0E0FB020539EF4E701CBD8008EBFF31
:1003E300EAFEE9FD80EBE98DF0A4FEE5F002047C72
:1003F300E9CDF9EAFEEBFFEF89F0A4FCE5F0CE8945
:10040300F0A42EFFE435F0CD89F0A42DFEE435F001
:100413008067EF4E7005BD80D780C3EF8BF0A4AC2F
:10042300F0EE8BF0A42CFCE435F0F8EF8AF0A42C6A
:10043300E5F038FCE433CB8DF0A42CFCE5F03BF87D
:10044300EE8AF0A42CFCE5F038F8E433CF89F0A46D
:100453002CFCE5F038CF3400CE89F0A42FFFE5F073
:100463003EFEE433C98DF0A42EFEE5F039CD8AF0CB
:10047300A42FFFE5F03EFEE43DFD33D0E0FB500743
:100483000BBB000F02054DEC2CFCEF33FFEE33FEEC
:06049300ED33FD0205251A
:1004990075F020800E75F010800575F0087D007EDE
:1004A900007F003392D530D50312065FEC3340103C
:1004B900EF33FFEE33FEED33FDEC33FCD5F0ED22E7
:0E04C900E5F0247EA2D513CC92E7CDCEFF2223
:1004D700EDD2E7CD33EC3392D524814006E4FFFE1D
:1004E700FDFC22FCE4CFCECDCC24E0501174FF807C
:1004F700EDC3CC13CCCD13CDCE13CECF13CF047019
:07050700F030D5DE02065FB3
:10050E00E9D2E7C933E833F892D5EDD2E7CD33EC33
:07051E0033FC5002B2D522AC
:10052500EC30E7100FBF000C0EBE00080DBD000437
:100535000BEB6014A2D5EB13FCED92E7FD2274FFE3
:10054500FCFDFEFF22E480F8A2D574FF13FC7D803C
:03055500E480EF50
:03000000020D2DC1
:0C0D2D00787FE4F6D8FD75814C020D744F
:10055800BB010689828A83E0225002E722BBFE02A1
:09056800E32289828A83E49322D4
:10057100BB010CE58229F582E5833AF583E022503F
:1005810006E92582F8E622BBFE06E92582F8E22289
:0D059100E58229F582E5833AF583E49322A3
:10059E00BB010689828A83F0225002F722BBFE013C
:0205AE00F32236
:1005B000F8BB010DE58229F582E5833AF583E8F081
:1005C000225006E92582C8F622BBFE05E92582C82D
:0205D000F22215
:1005D200BC000BBE0029EF8DF084FFADF022E4CC0D
:1005E200F875F008EF2FFFEE33FEEC33FCEE9DECD6
:1005F200984005FCEE9DFE0FD5F0E9E4CEFD22ED1C
:10060200F8F5F0EE8420D21CFEADF075F008EF2F65
:10061200FFED33FD4007985006D5F0F222C398FD56
:050622000FD5F0EA22F3
:10062700BB0110E58229F582E5833AF583E0F5F011
:10063700A3E0225009E92582F886F008E622BBFEEE
:100647000AE92582F8E2F5F008E222E5832AF58334
:08065700E993F5F0A3E99322F9
:0E065F00C3E49FFFE49EFEE49DFDE49CFC22AC
:06066D008A838982E47318
:100D390002172EE493A3F8E493A34003F68001F28B
:100D490008DFF48029E493A3F85407240CC8C333BB
:100D5900C4540F4420C8834004F456800146F6DF8A
:100D6900E4800B010204081020408090164BE47EB9
:100D7900019360BCA3FF543F30E509541FFEE4937F
:100D8900A360010ECF54C025E060A840B8E493A346
:100D9900FAE493A3F8E493A3C8C582C8CAC583CA71
:100DA900F0A3C8C582C8CAC583CADFE9DEE780BE29
:011663000086
:00000001FF
