:030000000203B543
:0C03B500787FE4F6D8FD7581550203FC4A
:0407A100D2A07F055E
:1007A500000000000000000000000000000000AE96
:0607B500071FEE70EB22AD
:0F081600D2A11207A1C2A17F051207A5C2A0227D
:0C083300C2A11207A1D2A17F050207A5F7
:0206A500AD079F
:1006A700E4FCECC39408748094805024C2A07F05B6
:1006B7001207A5ED30E704D2A18002C2A17F05127F
:1006C70007A5D2A0ED25E0FD7F051207A50C80D276
:0206D700C2A0BF
:0106D90022FE
:10073A00E4FCECC394087480948050171207A1ED6E
:10074A0025E0FD30A103430501C2A07F051207A5DC
:05075A000C80DFAF057B
:01075F002277
:10076000AB051208167FA01206A5120772AF03127E
:0207700006A5DC
:100772001207A1A2A1E433FDC2A07F051207A5AF13
:010782000571
:010783002253
:1007BB00C2A0EF24FF92A17F051207A51207A1C2C9
:0807CB00A0D2A17F050207A5E1
:10070C001208167F901206A51207727F431206A5D7
:10071C001207721208167F911206A51207721207A1
:0D072C003AAD077F011207BB120833AF057D
:01073900229D
:1006DA008B518A528953120760AF551555EF601F27
:1006EA00AB510553E553AA527002055214F912048C
:1006FA0041FF1206A51207727FC81207A580DA0207
:02070A000833B2
:1005EE008B518A5289531207601208167FA1120688
:1005FE00A5120772AF551555EF602412073AAB518D
:10060E000553E553AA527002055214F9EF12045A1B
:10061E00E5556004E4FF80027F011207BB80D5021E
:02062E0008338F
:1004C1000C0AC0F9A4B0999282F88090FFBF081677
:0E04D10001020408102040800108000109FF0C
:10078400E5A0541F4480F5A07580FF53A01FE5A089
:0D079400541F44A0F5A0E4F58053A01F22DF
:1007D300E4FF20B3027F0420B2027F0520B1027F31
:0607E3000620B0027F07B2
:0107E90022ED
:10063000ED4C600FA8077401088002C333D8FC4258
:1006400008800EA8077401088002C333D8FCF45256
:1006500008E50865096013E508F4F580E5A0541F76
:0A0660004480F5A053A01F8508098F
:01066A00226D
:10066B007580FFE5A0541F44E0F5A053A01F74163E
:10067B002FF8E6F580E5A0541F44C0F5A053A01F4A
:10068B00740A2DF8E6F580EB4A600353807FE5A0F2
:0A069B00541F44E0F5A053A01F22F5
:1004DF0008450A0A0A0A0A0A0A0A08240000000044
:1004EF000000000008390000000000000000042D8B
:1004FF0004040404014100013800014200013500E9
:10050F0001330001230002310000012C00014E00D5
:10051F00012200C100013400014300014F000236E7
:02052F000000CA
:1007EA001207841208011208251202FD120532129C
:0707FA00000E1205A080F2C1
:10080100438E7F5389F0758A18758CFCC28DD28C0A
:05081100D2A9D2AF22C4
:0E0825007B007A00792D755504E4FD0205EE86
:03000B000201BE31
:1001BE00C0E0C0F0C083C082C0D075D000C000C007
:1001CE0001C002C003C004C005C006C0070541E55A
:1001DE0041640A7002F5410538AF387E00BE010653
:1001EE00BFF4037538000542E54264087002F5421B
:1001FE000532E53270020531FFAE31BE0309BF2074
:10020E00067531007532000522E52264187002F57C
:10021E0022E522D3954EAF427E00500B7439254213
:10022E00F8E6FD7C008003E4FDFC120630E5356443
:10023E0001701EC3E5329490E53194014002805660
:10024E00C3E542940474809480AF427E00503380A4
:10025E0022E5356402703FC3E5329490E531940196
:10026E0040028032C3E542940474809480AF427E93
:10027E0000400F74242542F8E6FB7A007D0A7C00CC
:10028E00802A74452542F8E6FD7C0074242542F848
:10029E00E6FB7A008016AF427E0074452542F8E6F2
:1002AE00FD7C0074242542F8E6FB7A0012066B30C2
:1002BE0000220537E53770020536742D2543F8E622
:1002CE0075F064A4B5370DE5F0B5360875360075D2
:1002DE003700054FD007D006D005D004D003D0028A
:0F02EE00D001D000D0D0D082D083D0F0D0E03279
:1002FD00E54160030203B47541011207D38F50E548
:10030D0050654DFF5550F544E550F45FF52185508E
:10031D004DAF357E00EF7009E5446404700375231D
:10032D0001EF4E7008E52164047002F523E52124E8
:10033D00FB603314605914606C2403706AE53564F6
:10034D00027012742D2533F816E664037007742DB0
:10035D002533F8760CE5356401704C1533E533F42F
:10036D00704575330322E53564027012742D253303
:10037D00F806E6640D7007742D2533F87604E5351F
:10038D00640170230533E5336404701BF5332205D6
:10039D0035E53564037010F535FB7A00792D75550B
:0803AD0004FD0206DAB2002291
:10053200E5387069753801E5357024E52360077583
:060542004B0B852C4C223E
:10054800E4F551C3E551940874809480504974458A
:090558002551F8760A055180EAEC
:1005610075450BE53304F54675470B75480A754922
:100571000A742D2533F8E675F00A84FFD3940074CC
:1005810080948040048F49800375490A742D253376
:0F059100F8E675F00A8485F04AE4F54BF54C2244
:06000E002000030201BD09
:10001400E4F551E54314604B1470030200A8147016
:1000240003020132240360030201BDC3E5519408B5
:10003400748094805019E551B54F097439254FF8EF
:100044007601800774392551F8E4F6055180DCC344
:10005400E54F94087480948050030201BD754301F8
:1000640002012EE4F551C3E5519408748094805044
:100074001FE551B54F0CC3740795512439F8760127
:10008400800AC3740795512439F8E4F6055180D6E3
:10009400C3E54F94087480948050030201BD7543F6
:1000A4000202012EE4F551C3E55194047480948056
:1000B4005067E551654F7030E55175F009A4240788
:1000C400FBE435F0FA7C007D0AAF03FE12046C7485
:1000D400392DF876017C007D0AAF03AE0212046C60
:1000E40074392FF87601802DE55175F009A42407A1
:1000F400FBE435F0FA7C007D0AAF03FE12046C7455
:10010400392DF8E4F6FC7D0AAF03AE0212046C74D8
:10011400392FF8E4F60551808EC3E54F94047480BA
:10012400948050030201BD754303E4F54F22E4F5C6
:1001340051C3E551940474809480506DE551654F2A
:100144007033E55175F009A4FFC374229FFBE49555
:10015400F0FA7C007D0AAF03FE12046C74392DF8AA
:1001640076017C007D0AAF03AE0212046C74392F51
:10017400F876018030E55175F009A4FFC374229F1D
:10018400FBE495F0FA7C007D0AAF03FE12046C7464
:10019400392DF8E4F6FC7D0AAF03AE0212046C7448
:1001A400392FF8E4F605518088C3E54F9404748030
:0901B40094804005E4F543F54F89
:0101BD00221F
:1005A00012070C8F347E00C3EF9440748094805007
:1005B00007754E06752C0122C3EF9480EE6480947B
:1005C000805007754E0C752C0222C3EF94C0EE6468
:1005D0008094805007754E12752C0322D3EF94FF40
:0E05E000EE648094805006754E18752C04222F
:1003C1000207EAE493A3F8E493A34003F68001F261
:1003D10008DFF48029E493A3F85407240CC8C3333D
:1003E100C4540F4420C8834004F456800146F6DF0C
:1003F100E4800B01020408102040809004C1E47ED7
:10040100019360BCA3FF543F30E509541FFEE49300
:10041100A360010ECF54C025E060A840B8E493A3C7
:10042100FAE493A3F8E493A3C8C582C8CAC583CAF2
:10043100F0A3C8C582C8CAC583CADFE9DEE780BEAA
:0105310000C9
:10044100BB010689828A83E0225002E722BBFE02B9
:09045100E32289828A83E49322EC
:10045A00BB010689828A83F0225002F722BBFE0181
:02046A00F3227B
:10046C00BC000BBE0029EF8DF084FFADF022E4CC74
:10047C00F875F008EF2FFFEE33FEEC33FCEE9DEC3D
:10048C00984005FCEE9DFE0FD5F0E9E4CEFD22ED83
:10049C00F8F5F0EE8420D21CFEADF075F008EF2FCD
:1004AC00FFED33FD4007985006D5F0F222C398FDBE
:0504BC000FD5F0EA225B
:00000001FF
