:0300000002008C6F
:0C008C00787FE4F6D8FD7581070200982B
:0B0098001200A312005E12007D80FB2E
:10003F00EF24FB600E14600F1460102403700F7513
:0F004F00A0802275A0A02275A0C02275A0E0227B
:10005E007F0512003FE4F5801F12003F7580FF22DE
:0E006E0000007F057E347DC3DDFEDEFCDFFA80
:01007C002261
:0F007D007F0412003FC28012006ED28002006E1C
:0700A300D2AFD288D2A822DF
:03000300020006F2
:0F000600C0E0C0D075D000C004C005C006C00760
:100015007F0412003FD280C287E4FCECC3940A74CB
:0D002500809480500612006E0C80F0D2878F
:0D003200D007D006D005D004D0D0D0E032E9
:00000001FF
