:0300000002028178
:0C028100787FE4F6D8FD7581400202C8C9
:0405E100D2A07F0520
:0805E50000AE071FEE70F922C1
:0F05D200D2A11205E1C2A17F051205E5C2A02248
:0C05ED00C2A11205E1D2A17F050205E5C4
:10057100C2A0A20292A17F051205E51205E1C2A067
:07058100D2A17F050205E590
:1005B1001205E1A2A19202C2A07F051205E5A202E5
:0105C1002217
:02042A00AD071C
:10042C00E4FCECC39408748094805024C2A07F0533
:10043C001205E5ED30E704D2A18002C2A17F0512BE
:10044C0005E5D2A0ED25E0FD7F051205E50C80D277
:02045C00C2A03C
:01045E00227B
:1004EA00E4FCECC394087480948050171205E1ED83
:1004FA0025E0FD30A103430501C2A07F051205E5F1
:05050A000C80DFAF05CD
:01050F0022C9
:1003E9000A2DC0F9A4B0999282F880900821FFFFE4
:1003F900FFFFFFFFFFFF013900012A01C1000129A9
:1004090000013801C101013704013C00013F00022C
:100419003D0000022B0000014000013B19013AFF99
:0B0611001205F912058812000E80FB94
:0C05F90090800074FFF090A000E4F0225D
:10000E00853F3CE53C1460461470030200C924028F
:10001E00600302013120B11312045F20B10D20B133
:10002E000512045F80F8753F01D20130B30302015F
:10003E0031120536D20120B31012045F12030D12D5
:10004E000536AF3812014580EDC20102013120B1F3
:10005E001612045F20B11020B10512045F80F875EE
:10006E003F02E4F52BF52C20B22412045F20B21EC1
:10007E0020B20D1204C012045FAF3812014580F099
:10008E000538E53864057003753801E4F52930B399
:10009E000302013112045F30B30302013120B30DAC
:1000AE001204C012045FAF3812014580F01538E516
:1000BE00387003753804E4F529806820B1131204F2
:1000CE005F20B10D20B10512045F80F8E4F53FC248
:1000DE000120B22612045F20B22020B20D12038A34
:1000EE0012045FAF3812014580F00537C3E537942F
:1000FE000D74809480400375370420B32612045F7C
:10010E0020B32020B30D12038A12045FAF38120100
:10011E004580F01537D3E5379403748094805003EF
:10012E0075370C12030D1204C012038A12045FAF4E
:07013E003812014502059D86
:1005540090E00074FFF0A8077401088002C333D848
:0D056400FC90C000F090E000EDF0020605F4
:1005C20090E00074FFF090C000F090E000EFF022A5
:10045F0030012DE4F50CC3E50C94087480948050A2
:10046F001AAF0C7E007421250CF8E6FD120554AF6F
:10047F0038120145120605050C80DB7FFF1205C2FD
:01048F00224A
:1004C000E53F64017015C3E52C9490E52B94015031
:1004D0000A7521FF7522FF7523FF227521BF742D38
:0A04E0002538F8E6F5227523BF2247
:10038A00E53F6402702FC3E52C9490E52B9401504D
:10039A000D7525FF7526FF7527FF7528FF22E5379E
:1003AA0075F00A84FF70057525FF801E742D2FF8DD
:1003BA00E6F5258015E53775F00A84FF7005752581
:1003CA00FF8007742D2FF8E6F525E53775F00A84C6
:0F03DA00742D25F0F8E6F526852D27852D282290
:100536007521FF7522FF7523FF7524FF7525FF754D
:0E05460026FF7527BF742D252AF8E6F528221A
:0B0605000000007F0B7EBEDEFEDFFC6D
:0106100022C7
:10059D0020B01012045F20B00A20B00512045F8055
:0405AD00F8B200227E
:1001450020000A90800074FFF0E4F52922EF24FED8
:10015500601F14602E14605A240360030201F0E549
:100165003A5401FFAE29A806088002C333D8FC80A3
:100175006EE53A5480FFAE29A806088002C313D85D
:10018500FC805CC3E5299404748094805057E53A5B
:100195005401FFAE29A806088002C333D8FCFFE549
:1001A5003A5480FEAD29A805088002C313D8FC4F38
:1001B500802DC3E5299404748094805028E53A5431
:1001C50010FFAE29A806088002C333D8FCFFE53A24
:1001D5005408FEAD29A805088002C313D8FC4FF4C6
:0C01E500908000F02274FC2529F52922EE
:10058800438E805389F0758ACD758CD4C28DD28CF8
:05059800D2A9D2AF2240
:03000B000201F1FE
:1001F100C0E0C0F0C0D075D000C006C007300028F4
:10020100053EE53E7002053DE53775F064A4B53E57
:100211001DE5F0B53D180529753D00753E00E52940
:100221006408700AF5298006753D00753E003001AD
:1002310012052CE52C7002052BB4200DE52BB4031F
:10024100088000752B00752C000540E540C3953BE7
:100251005005753AFF801EAF407E00C3EF940A74CB
:100261008094805005753A00800BEF640A4E70054A
:10027100753AFFF540D007D006D0D0D0F0D0E032AB
:020490008F0CCF
:100492001205D27F9012042A1205B1AF0C12042A5F
:1004A2001205B11205D27F9112042A1205B112046B
:0D04B200EA8F0DD2021205711205EDAF0D9B
:0104BF00221A
:100510008E088F098C0A8D0B1205D27F9012042A47
:100520001205B1AF0912042A1205B1AF0B12042A49
:060530001205B10205ED09
:10030D007F431204908F397E00D3E49F7480F89858
:10031D005011C3EF9440748094805007752A017575
:10032D003B0122D374409FEE6480F8748098501284
:10033D00C3EF9480EE648094805007752A02753B5C
:10034D000422D374809FEE6480F87480985012C399
:10035D00EF94C0EE648094805007752A03753B07B7
:10036D0022D374C09FEE6480F8748098500EC3EE53
:0D037D00648094815006752A04753B0A22A5
:10028D00020611E493A3F8E493A34003F68001F270
:10029D0008DFF48029E493A3F85407240CC8C33372
:1002AD00C4540F4420C8834004F456800146F6DF41
:1002BD00E4800B01020408102040809003E9E47EE5
:1002CD00019360BCA3FF543F30E509541FFEE49336
:1002DD00A360010ECF54C025E060A840B8E493A3FD
:1002ED00FAE493A3F8E493A3C8C582C8CAC583CA28
:1002FD00F0A3C8C582C8CAC583CADFE9DEE780BEE0
:0104290000D2
:00000001FF
