:030000000203BE3A
:0C03BE00787FE4F6D8FD75814502040547
:10044A00083B0A0A0A0A0A0A0A0A082F00000000D8
:10045A00000000000827000000000000000001372B
:10046A00000126000145000238000002220000C1F6
:0B047A0001C102C103C1000224000008
:0E06A80000007F2E7E997DF5DDFEDEFCDFFA80
:0106B6002221
:100628001205EF1206881206731206A81204A51204
:0A063800014A12026D12060C80F256
:1005EF00E5A0541F4480F5A07580FF53A01FE5A020
:0D05FF00541F44A0F5A0E4F58053A01F2276
:10068800538E7F438905E4F58AF58CC28DD28C227E
:10067300438E4053890F758B20758DD1C28FD28ED7
:05068300D2ABD2AF2252
:03001B0002031DC0
:10031D00C0E0C0F0C083C082C0D075D000C000C0A6
:10032D0001C002C003C004C005C006C0070537E503
:10033D0037640A7002F5370526AF267E00BE01062A
:10034D00BFF4037526000545E54564087002F545C3
:10035D000539E53970020538FFAE38BE0319BFE81F
:10036D0016AF8CEFAD8AF522EDF523753800753992
:10037D0000758A00758C0074272545F8E6FDAF459C
:10038D001204DF743B2545F8E6FD742F2545F8E68C
:10039D00FBAF45120519D007D006D005D004D00308
:1003AD00D002D001D000D0D0D082D083D0F0D0E018
:0103BD00320D
:1004A500E537703575370112065C8F44E5446543C1
:1004B500FF5544F53AE544F45FF521854443E53AB3
:1004C50024FB600D14600D14600D2403700BB20342
:0A04D50022B20022B20122B202227C
:10014A00E526600302026C752601A202B34003028F
:10015A00025AA203B34003020203753B0BE5239440
:10016A000FE5229427400FAE22AF237C277D101281
:10017A0000E78F3E8003753E0AD3E52394E7E52224
:10018A0094034016AE22AF237C037DE81200E77C7D
:10019A00007D0A1200E78D3F8003753F0AD3E523ED
:1001AA009463E52294004016AE22AF237C007D645E
:1001BA001200E77C007D0A1200E78D40800375403B
:1001CA000AE4F534D3E5239409E52294004016AEF7
:1001DA0022AF237C007D0A1200E77C007D0A120010
:1001EA00E78D41800375410AD3E5239400E5229403
:1001FA0000406CAE22AF23804D753B0C753E0A75EC
:10020A003F0AAE24AF257C007D641200D57D3312EF
:10021A0000E7AA06AB077C007D641200E78F4075F1
:10022A0034017C007D0AAF03AE021200E77C007D38
:10023A000A1200E78D41AE24AF257C007D641200CE
:10024A00D57D331200E77C007D0A1200E78D422239
:10025A00753B0A753F0A75400AE4F53475410A751B
:03026A00420A2223
:10026D0030010302030B200308752701E4F52880F4
:10027D0006E4F527752801AC24AD25E412009CE4B5
:10028D00FBFA7999784212001E60044002802FAC6F
:10029D0024AD25E412009CE4FBFA79FF78421200AC
:1002AD001E60044002801CAC24AD25E412009C7B32
:1002BD00007A807932784312001E60074005E4F51C
:1002CD00298003752901C3E52394E8E522940350A1
:1002DD00028018C3E5239488E52294135002801000
:1002ED00C3E5239410E52294275005E4F52A8003F5
:1002FD00752A01200004E4F52B22752B0122E4F56B
:10030D0027F528F529F52AF52BF52CF52DF52E22B7
:10060C0020000B7524007525667F66020698AF25C1
:0C061C001206981205CF7524008F2522CD
:04064200D2A07F05BE
:10064600000000000000000000000000000000AEF6
:06065600071FEE70EB220D
:0F06B700D2A1120642C2A17F05120646C2A0229E
:0C06C600C2A1120642D2A17F0502064626
:02055200AD07F3
:10055400E4FCECC39408748094805024C2A07F050A
:10056400120646ED30E704D2A18002C2A17F051233
:100574000646D2A0ED25E0FD7F051206460C80D28A
:02058400C2A013
:010586002252
:10058700E4FCECC39408748094805017120642ED83
:1005970025E0FD30A103430501C2A07F05120646F1
:0505A7000C80DFAF0530
:0105AC00222C
:1005AD001206B77F901205521205BD7F43120552F8
:1005BD00120642A2A1E433FDC2A07F05120646AF8A
:0105CD000528
:0105CE00220A
:10000300C2A0EF24FF92A17F05120646120642C248
:08001300A0D2A17F0502064600
:1005CF00E4FD1205AD1206B77F911205521205BD5B
:0F05DF00120587AD077F011200031206C6AF0594
:0105EE0022EA
:10069800AB071205ADAF031205521205BD0206C61F
:10065C00E4FF20B0027F0720B1027F0620B2027FA8
:06066C000520B3027F042B
:010672002265
:06048500011D00011EFF35
:1004DF00ED600FA8077401088002C333D8FC421DDA
:1004EF00800EA8077401088002C333D8FCF4521D94
:1004FF00E51D651E6013E51DF4F580E5A0541F444E
:09050F0080F5A053A01F851D1EFC
:0105180022C0
:10048B000D08C0F9A4B0999282F88090FF8EC10834
:09049B0015010204081020408044
:100519007580FFE5A0541F44E0F5A053A01F741592
:100529002FF8E6F580E5A0541F44C0F5A053A01F9D
:1005390074082DF8E6F580EB600353807FE5A0543D
:090549001F44E0F5A053A01F229D
:10001E0074F8CC6480CCC86480C8F58204604FC389
:10002E00EB9FF5F0EA9E42F0E99D42F0E89C45F028
:10003E00603C501DE5825FFFE582D313CB5BCBF4B2
:10004E002B5582FB50280ABA002409B900200880DB
:10005E001DE5825BFBE582D313CF5FCFF4C3132F75
:10006E005582FF50090EBE00050DBD00010CC3EBFD
:10007E009FF5F0EA9E42F0E99D42F0E89C45F06063
:09008E0007CC4820E701B3EC2285
:1000970075F020800E75F010800575F0087D007EE4
:1000A700007F003392D530D50312013CEC3340106A
:1000B700EF33FFEE33FEED33FDEC33FCD5F0ED22ED
:0E00C700E5F0247EA2D513CC92E7CDCEFF2229
:1003CA00020628E493A3F8E493A34003F68001F21B
:1003DA0008DFF48029E493A3F85407240CC8C33334
:1003EA00C4540F4420C8834004F456800146F6DF03
:1003FA00E4800B010204081020408090044AE47E45
:10040A00019360BCA3FF543F30E509541FFEE493F7
:10041A00A360010ECF54C025E060A840B8E493A3BE
:10042A00FAE493A3F8E493A3C8C582C8CAC583CAE9
:10043A00F0A3C8C582C8CAC583CADFE9DEE780BEA1
:0104A4000057
:1000D500EF8DF0A4A8F0CF8CF0A428CE8DF0A42E3F
:0200E500FE22F9
:1000E700BC000BBE0029EF8DF084FFADF022E4CCFD
:1000F700F875F008EF2FFFEE33FEEC33FCEE9DECC6
:10010700984005FCEE9DFE0FD5F0E9E4CEFD22ED0B
:10011700F8F5F0EE8420D21CFEADF075F008EF2F55
:10012700FFED33FD4007985006D5F0F222C398FD46
:050137000FD5F0EA22E3
:0E013C00C3E49FFFE49EFEE49DFDE49CFC22D4
:00000001FF
