:03000000020CF8F7
:0C0CF800787FE4F6D8FD75817A020D3F8C
:1011340054454D503A252E3166430D0A00566F6CC6
:0D114400746167653A252E3266560D0A006B
:100E000008550A0A0A0A0A0A0A0A08290000000004
:100E100000000000084A000000000000000001522D
:100E200000014900013200015300012200042300A7
:0B0E3000000000012800014700C1097C
:1010F600121151120F4D1211E41211B812000E12F4
:101106000C62120AFE121069121188120E6080EF2C
:10000E00438E805389F0758A20758CD1C28DD28C27
:05001E00D2A9D2AF22BF
:03000B00020BC61F
:100BC600C0E0C0F0C083C082C0D075D000C000C0F5
:100BD60001C002C003C004C005C006C0070552E537
:100BE60052640A7002F5520549AF497E00BE0106FD
:100BF600BFF4037549000532E53264C87002F53268
:100C06000553E55364087002F55330090C0522E5D7
:100C16002264C87007F52280037522007455255397
:100C2600F8E6FD7C0074292553F8E6FB7A00AF53FD
:100C3600120EDE744A2553F8E6FD7C00AF53120E01
:100C4600A3D007D006D005D004D003D002D001D05F
:0C0C560000D0D0D082D083D0F0D0E032AB
:03002300021202C4
:0C120200309808200903859948C29832F2
:100C6200E5526003020CF7755201120D848F5EE5A6
:100C72005E655DFF555EF554E55EF45FF527855EC2
:100C82005D24FB600B24F9600A24087068D20922F3
:100C9200C20922E54770267562FF756311756434D7
:100CA200852668852567852466852365FB7A007914
:100CB200331206EB7B007A007933121044E5476465
:100CC2000170327562FF756311756441AC281202BE
:100CD2004FE4FBFA794C784212012F8F688E678DB0
:100CE200668C657B007A0079331206EB7B007A0012
:060CF200793312104422C8
:100AFE00E5496003020BC5754901120F4D8F268E15
:100B0E00258D248C23120F818F28E54714605704FE
:100B1E006003020BC575550B755601E4FBFA79207F
:100B2E007841AF26AE25AD24AC2312012F120283DD
:100B3E008F5AE4F52EAF26AE25AD24AC23120283D8
:100B4E00EF75F00A8485F05B752F01E4FFFE7D20C2
:100B5E007C41AB26AA25A924A823120026120283C3
:100B6E007C007D0A804C75550B755602E52875F094
:100B7E003384F55A752E01E52875F064A4FFAEF0A6
:100B8E007C007D331205F6AA06AB077C007D0A12A7
:100B9E0005F67C007D0A1205F68D5BE4F52FFC7DD3
:100BAE000AAF03AE021205F67E007F0ACFCDCFCE7E
:080BBE00CCCE1205F68D5C227D
:10106900E5477007754A01F54B8006E4F54A754B6B
:1010790001C3E5229464748094805004E4F54C2201
:04108900754C01227F
:10118800E5327013753201E54824BE600704700724
:08119800E4F54722754701222E
:100E6000E4FFFE7DE07C41AB26AA25A924A823123D
:100E700001CC40047F018002E4FF12108DAC28E415
:100E800012024FE4FBFA794C784212012F7466FB90
:100E9000FAF978401201CC50047F018002E4FF127D
:030EA00010B0226D
:100E3B000C0AC0F9A4B0999282F88090FFC10818EF
:100E4B0001020408102040800108000109FF01166F
:040E5B00000117FF7C
:10115100E5A0541F4480F5A07580FF53A01FE5A0B2
:0D116100541F44A0F5A0E4F58053A01F2208
:100D8400E4FF538EEFC2C4D2C2D2B5D2B420B302B0
:100D94007F0420B2027F0520B1027F0620B0027FCB
:100DA40007D2C4C2C2D2B5D2B420B3027F0820B2E3
:100DB400027F0920B1027F0A20B0027F0BD2C4D285
:100DC400C2C2B5D2B420B3027F0C20B2027F0D2080
:100DD400B1027F0E20B0027F0FD2C4D2C2D2B5C2FC
:100DE400B420B3027F1020B2027F1120B1027F121F
:0B0DF40020B0027F1375B0FF438E108B
:010DFF0022D1
:100EDE00E5A0541F44E0F5A07580FF53A01FE5A0C8
:100EEE00541F44C0F5A074182FF8E6F58053A01FC8
:100EFE00E5A0541F44E0F5A0740A2DF8E6F580EB4A
:0A0F0E004A600353807F53A01F22A6
:100EA300ED4C600FA8077401088002C333D8FC42DD
:100EB30008800EA8077401088002C333D8FCF452DB
:100EC30008E50865096013E508F4F580E5A0541FFB
:0A0ED3004480F5A053A01F85080914
:010EDD0022F2
:10108D00EF600543161080035316EFE516651760E4
:10109D0011851680E5A0541F44A0F5A053A01F850F
:0310AD00161722F1
:1010B000EF600543164080035316BFE516651760C1
:1010C00011851680E5A0541F44A0F5A053A01F85EC
:0310D000161722CE
:1011B800759850438E01438E0475D7C775D6FE4384
:0711C8008E10D2ACD2AF2261
:080003008F993099FDC299228A
:101044008B5F8A608961AB5FAA60A96112059E60AB
:10105400130561E5617002056014F912059EFF1223
:05106400000380E22200
:0E11E40000007F207E857D57DDFEDEFCDFFAF9
:0111F20022DA
:041116007F057E00D3
:10111A00EF1FAA0670011E4A600FE4FDEDC3940C8E
:09112A007480948050EA0D80F3FA
:011133002299
:020FA900A90796
:100FAB00E4FBEBC39408748094805012C294E91351
:100FBB009294121116D294E9C313F90B80E47F05B6
:050FCB007E0002111A76
:1010D300E4FBEBC39408748094805014C294ECC373
:1010E30013FCD2943094034304801211160B80E254
:0210F300AF0448
:0110F50022D8
:100FD000C200D2947F0C7E0012111AC2947F507E00
:100FE0000012111AD2947F0A7E0012111AA2949252
:060FF00000121116A20020
:010FF60022D8
:100F4D00120FD07FCC120FA97F44120FA9120FD010
:100F5D007FCC120FA97FBE120FA91210D3A90712B1
:100F6D0010D3EFAD01FCEC12024AE4FBFA79807864
:040F7D004102012FFD
:04116E00D2A07F0587
:10117200000000000000000000000000000000AEBF
:06118200071FEE70EB22D6
:0F11F300D2A112116EC2A17F05121172C2A022E9
:0C120E00C2A112116ED2A17F0502117264
:020F1800AD0723
:100F1A00E4FCECC39408748094805024C2A07F053A
:100F2A00121172ED30E704D2A18002C2A17F05122C
:100F3A001172D2A0ED25E0FD7F051211720C80D24C
:020F4A00C2A043
:010F4C002282
:10101E00E4FCECC3940874809480501712116EEDAA
:10102E0025E0FD30A103430501C2A07F0512117218
:05103E000C80DFAF058E
:01104300228A
:0311CF00120F18E4
:1011D20012116EA2A1E433FDC2A07F05121172AFFB
:0111E2000507
:0111E30022E9
:1011A000C2A0EF24FF92A17F0512117212116EC22C
:0811B000A0D2A17F050211721B
:100F81001211F37F901211CF7F431211CF1211F37F
:100F91007F91120F181211D212101EAD077F01128C
:070FA10011A012120EAF05B2
:010FA8002226
:10002600EC4D6011E8497017ED33EC3304600DE4D4
:10003600FCFFFEFD22E933E8330470F80202EF12FA
:1000460002BA58046009E4CC2481500628500902FB
:1000560002F92840030202F6C0E0EB4A7044B98078
:1000660006D0E0FB0202E5EF4E701CBD8008EBFFF8
:10007600EAFEE9FD80EBE98DF0A4FEE5F002010F52
:10008600E9CDF9EAFEEBFFEF89F0A4FCE5F0CE89B5
:10009600F0A42EFFE435F0CD89F0A42DFEE435F072
:1000A6008067EF4E7005BD80D780C3EF8BF0A4ACA0
:1000B600F0EE8BF0A42CFCE435F0F8EF8AF0A42CDB
:1000C600E5F038FCE433CB8DF0A42CFCE5F03BF8EE
:1000D600EE8AF0A42CFCE5F038F8E433CF89F0A4DE
:1000E6002CFCE5F038CF3400CE89F0A42FFFE5F0E4
:1000F6003EFEE433C98DF0A42EFEE5F039CD8AF03C
:10010600A42FFFE5F03EFEE43DFD33D0E0FB5007B3
:100116000BBB000F0202F9EC2CFCEF33FFEE33FEB3
:06012600ED33FD0202D1E1
:10012C000202F9EC5D046005E8590470030202EF69
:10013C001202BA580460F6EC4860F2EC7004FDFE52
:10014C00FF22C860DB2481C85009C39860025006A6
:10015C000202F69850CAF582E9294B4A7005AB8227
:10016C000202E575F0007C1A7880C3EF9BEE9AEDE5
:10017C0099400DC3EF9BFFEE9AFEED99FDE842F01E
:10018C00DC23ACF0D0E0FFD0E0FED0E0FDAB822071
:10019C00E7101BEB60BAEC2CFCEF33FFEE33FEEDFB
:1001AC0033FD0202D1E803F830E705C0F075F0002A
:1001BC00EF2FFFEE33FEED33FD40B830E7C280AADF
:1001CC0074F8CC6480CCC86480C8F58204604FC3DA
:1001DC00EB9FF5F0EA9E42F0E99D42F0E89C45F079
:1001EC00603C501DE5825FFFE582D313CB5BCBF403
:1001FC002B5582FB50280ABA002409B9002008802C
:10020C001DE5825BFBE582D313CF5FCFF4C3132FC5
:10021C005582FF50090EBE00050DBD00010CC3EB4D
:10022C009FF5F0EA9E42F0E99D42F0E89C45F060B3
:09023C0007CC4820E701B3EC22D5
:1002450075F020800E75F010800575F0087D007E34
:10025500007F003392D530D50312064BEC334010A6
:10026500EF33FFEE33FEED33FDEC33FCD5F0ED223D
:0E027500E5F0247EA2D513CC92E7CDCEFF2279
:10028300EDD2E7CD33EC3392D524814006E4FFFE73
:10029300FDFC22FCE4CFCECDCC24E0501174FF80D2
:1002A300EDC3CC13CCCD13CDCE13CECF13CF04706F
:0702B300F030D5DE02064B1E
:10068F00E5762462F8E6057622785F300702786215
:10069F00E475F00112065902059E2000EB7F2ED261
:1006AF00008018EF540F2490D43440D4FF30040B43
:1006BF00EF24BFB41A0050032461FFE577600215E1
:1006CF0077057AE57A7002057930070D785FE47562
:1006DF00F001120659EF0205E4020FF77403D20777
:1006EF008003E4C207F5768B5F8A608961E4F57752
:1006FF00F579F57AE57760077F201206CA80F575E0
:10070F0078FFC201C200C202C203C205C206C208FC
:10071F00120698FF700D3007057F001206DBAF7AC7
:10072F00AE7922B4255FC2D5C204120698FF24D039
:10073F00B40A00501A75F00A787730D50508B6FF5D
:10074F000106C6A426F620D5047002D20380D92450
:10075F00CFB41A00EF5004C2E5D2040209C8D20187
:10076F0080C6D20080C0D20280BCD2D580BAD2055A
:10077F0080B47F201206CA2002077401B5770040AB
:10078F00F112068FFF1206CA020703D208D20680A3
:10079F009512068FFB12068FFA12068FF94A4B70CD
:1007AF000679BF7A0A7BFF20022EE577602A7E004A
:1007BF008E827583001205B760060EEE657870F0B5
:1007CF00C2D5EBC0E0EAC0E0E9C0E0EE120A28D0E3
:1007DF00E0F9D0E0FAD0E0FB12059EFF60AAEBC073
:1007EF00E0EAC0E0E9C0E01206CAD0E02401F9D087
:1007FF00E03400FAD0E0FBE5780460DCD578D980EE
:10080F0087D20280A2120A0B60F7E57870010412FA
:10081F000304A978600DE578600914F578120AB21F
:10082F00EF60F3EA30E702F404C3995077EAF42556
:10083F00780430E701E404F578800D120A0B60C1EB
:10084F00EA05782578120304EA7875F630E701E4B3
:10085F00257804D5780420050114120A28E4C0E095
:10086F00120AB27875E6601320E70714F61206B283
:10087F00802204F6D0E014C0E07F001206B2E578C3
:10088F0060071206A91578800B3005031206A9D050
:10089F00E0020703D0E00480C5120A0B60A0E578E0
:1008AF00041203047875EAF6E57820050260010466
:0508BF002404120A28C8
:1008C40074FF04C0E0120AB21206B2E578200502F1
:1008D40060031206A9D0E0B578E87F451206BC781B
:1008E40075E67F2B30E7047F2DF404C0E01206CABE
:1008F400D0E075F00A84C0F01206B3D0E01206B35B
:10090400020703791080027908C206C2088008D25F
:10091400D5790A8004790AC2D5E578047002F5789D
:10092400E4FAFDFEFF12068FFC7B08200113120679
:100934008FFD7B1030000A12068FFE12068FFF7B9C
:1009440020EC3382D592D55013C3E43000069FFFC8
:10095400E49EFEE42001039DFDE49CFCE4CBF8C28C
:1009640001EC700CCFCECDCCE824F8F870F38017EE
:10097400C3EF33FFEE33FEED33FDEC33FCEB33FB1F
:10098400994002FB0FD8E9EB300105F8D0E0C448E8
:10099400B201C0E00AEC4D4E4F78207B0070C2EAF1
:1009A400B5780040BCC0E0120A2AD0F0D0E02001A3
:1009B40004C4C0E0C4B201C0F01206B3D0F0D5F054
:1009C400EB02070312066907A05309075807714C85
:1009D400076D42090B4F091344091349078643095C
:1009E4001955084A4608A8450814470ADF500775F0
:1009F4002D07792E079C2B077D23079A200AC82AE6
:100A040007354800000794E578B4FF0375780612AB
:100A1400068FFC12068FFD12068FFE12068FFF78DA
:100A24006E020333790AA2D5200314300509B910E4
:100A3400020404B9080104A2D520060250010420CE
:100A440002689202B577005034C0E07F2030031969
:100A54007F30A20272067205500F120A81C202C2CE
:100A640006C205C2087F30800F300503E9C0E012DA
:100A740006CA300503D0E0F9D0E0B577CC300517CD
:100A84007F30B9100C1206CA7F583004077F788073
:100A940003B908031206CA3002057F2D0206CA7F75
:100AA400202008F87F2B2006F322920280CF7F00BB
:100AB400B407005005246EF8E6FF22286E756C6CAE
:100AC4002900D20112068F3001F8C201787730D59F
:100AD4000108F60207352D5043495812068F2403A6
:100AE400B405004001E4900ADA931206BB743A128A
:0A0AF40006BBD20375770402090760
:1002BA00E9D2E7C933E833F892D5EDD2E7CD33EC8A
:0702CA0033FC5002B2D52203
:1002D100EC30E7100FBF000C0EBE00080DBD00048E
:1002E1000BEB6014A2D5EB13FCED92E7FD2274FF3A
:1002F100FCFDFEFF22E480F8A2D574FF13FC7D8093
:03030100E480EFA6
:10030400F920E72824F950037907E4F42402FB18C0
:10031400DBFDE624FB5014E9600DE4F618E604F670
:0F032400B40A08E4F6D9F57401F60A22C2D5220C
:10033300ED33EC3392D5FA602AB4FF33EDC2E77B99
:10034300FF60067A037958E4227A03796120D504A1
:100353007A03795C224E614E002B494E46002D49AB
:100363004E4600E47A08F608DAFC7B00740722E8BC
:10037300C0E0ECC0E0EDC0E0EEC0E0EFC0E0EA7545
:10038300F010A4CAABF075F04DA42BFBE435F0FCE0
:10039300EA2410FAEB34C5FBEC34D9FCEDC2E7FFD9
:1003A30075F056A4F42411C5F0F434C58FF0A42AD3
:1003B300E5F03BE43CF620E71412055ED0E0FFD005
:1003C300E0FED0E0FDD0E0FC12012F8014F4041213
:1003D300055ED0E0FFD0E0FED0E0FDD0E0FC1200EF
:1003E30026D0E0F8E6FAEDD2E7CD33EC332482FBF6
:1003F300E4C3CF33CFCE33CECD33CD33DBF37B0763
:1004030075F00A846004F6081B0AE5F0F6088FF01D
:10041300740AA4FFACF08EF0740AA42CFEACF05066
:10042300010C8DF0740AA42CFDE435F0F608DBDE34
:0304330074072229
:100436000202EFE86480F8E933E83360110460F003
:10044600ED33EC337009E8FCE9FDEAFEEBFF22042C
:1004560060DED3EB9FEA9EE99DE8C2E78CF0C2F727
:1004660095F0400CE8CCF8E9CDF9EACEFAEBCFFBF3
:100476001202BA85D0F05804700320D5B3E8047090
:10048600075002B2D50202F992D5EC0460F7E4CC2B
:10049600C0E0C398F8603B94186008400DD0E0FBBC
:1004A6000202D1E4FBFAC9FC8028E830E406E4C97C
:1004B600FBE4CAFCE830E305E4C9CACBFCE8540710
:1004C6006010F8C3E913F9EA13FAEB13FBEC13FC1B
:1004D600D8F130F52FC3E49CFCEF9BFFEE9AFEEDBE
:1004E60099FDD0E0FBEF4E4D4C701222DB03020269
:1004F600F6EC2CFCEF33FFEE33FEED33FDED30E78B
:10050600EB0202D1EF2BFFEE3AFEED39FDD0E0FB18
:1005160050130BBB00030202F9ED13FDEE13FEEFC1
:0805260013FFEC13FC0202D1EB
:10052E003F8000004120000042C80000447A0000D5
:10053E00461C400047C35000497424004B18968057
:10054E004CBEBC205A0E1BCA6753C21C749DC5AE4E
:10055E00FB60065407601C232312058CEB54386095
:10056E0009120578120587120026ECF8EDF9EEFA5D
:10057E00EFCB22EB12058780F1543803241C900533
:10058E002EFE93FC0EEE93FD0EEE930ECE93FF22F7
:100D04000210F6E493A3F8E493A34003F68001F2FF
:100D140008DFF48029E493A3F85407240CC8C333F0
:100D2400C4540F4420C8834004F456800146F6DFBF
:100D3400E4800B0102040810204080900E00E47E41
:100D4400019360BCA3FF543F30E509541FFEE493B4
:100D5400A360010ECF54C025E060A840B8E493A37B
:100D6400FAE493A3F8E493A3C8C582C8CAC583CAA6
:100D7400F0A3C8C582C8CAC583CADFE9DEE780BE5E
:010E5F000092
:10059E00BB010689828A83E0225002E722BBFE025B
:0905AE00E32289828A83E493228E
:1005B700BB010CE58229F582E5833AF583E02250F9
:1005C70006E92582F8E622BBFE06E92582F8E22243
:0D05D700E58229F582E5833AF583E493225D
:1005E400BB010689828A83F0225002F722BBFE01F6
:0205F400F322F0
:1005F600BC000BBE0029EF8DF084FFADF022E4CCE9
:10060600F875F008EF2FFFEE33FEEC33FCEE9DECB1
:10061600984005FCEE9DFE0FD5F0E9E4CEFD22EDF7
:10062600F8F5F0EE8420D21CFEADF075F008EF2F41
:10063600FFED33FD4007985006D5F0F222C398FD32
:050646000FD5F0EA22CF
:0E064B00C3E49FFFE49EFEE49DFDE49CFC22C0
:10065900FAE6FB0808E6F925F0F618E6CA3AF622A2
:10066900D083D082F8E4937012740193700DA3A320
:1006790093F8740193F5828883E473740293686034
:06068900EFA3A3A380DF34
:100FF700EFB40A07740D121002740A309811A899F9
:10100700B8130CC2983098FDA899C298B811F63059
:0710170099FDC299F5992231
:00000001FF
