:03000000020003F8
:0C000300787FE4F6D8FD75812002004AE9
:10020E000B10C0F9A4B0999282F88090FF0808FFF5
:07021E00FFFFFFFFFFFFFFE0
:1001CF0012026D7F431201298F1B7F411201298F6C
:1001DF001C12015912008F7D7F7C007F431201ABEF
:0201EF0080E1AD
:0C026D0090800074FFF090A000E4F022EC
:020129008F1D28
:10012B0012025E7F901200F412023DAF1D1200F41A
:10013B0012023D12025E7F911200F412023D120177
:0D014B00858F1ED200120226120291AF1EF7
:010158002284
:1001AB008F1D8C1E8D1F12025E7F901200F41202A7
:1001BB003DAF1D1200F412023DAF1F1200F41202EC
:0401CB003D0202915E
:1001F10090E00074FFF0A8077401088002C333D8AF
:0D020100FC90C000F090E000EDF0020279EA
:10024E0090E00074FFF090C000F090E000EFF0221C
:10015900E4F51DC3E51D9408748094805017AF1D04
:100169007E007408251DF8E6FD7C001201F11202DB
:0C01790079051D80DE7FFF7E0002024E33
:0B0279000000007F0B7EBEDEFEDFFCFD
:010284002257
:10008F00E51C75F0648475F00A84741025F0F8E6A9
:10009F00F508E51C75F00A8475F00A84741025F0D4
:1000AF00F8E6F509E51C75F00A84741025F0F8E6FA
:1000BF00F50AE51B75F0648475F00A84741025F059
:1000CF00F8E6F50DE51B75F00A8475F00A847410D7
:1000DF0025F0F8E6F50EE51B75F00A84741025F08F
:0500EF00F8E6F50F2208
:04028500D2A07F057F
:0802890000AE071FEE70F92220
:0F025E00D2A1120285C2A17F05120289C2A0227D
:0C029100C2A1120285D2A17F05020289E1
:10022600C2A0A20092A17F05120289120285C2A075
:07023600D2A17F050202893D
:10023D00120285A2A19200C2A07F05120289A2001E
:01024D00228E
:0200F400AD0756
:1000F600E4FCECC39408748094805024C2A07F056D
:10010600120289ED30E704D2A18002C2A17F051256
:100116000289D2A0ED25E0FD7F051202890C80D26E
:02012600C2A075
:0101280022B4
:10018500E4FCECC39408748094805017120285ED4A
:1001950025E0FD30A103430501C2A07F05120289B8
:0501A5000C80DFAF0536
:0101AA002232
:10000F000201CFE493A3F8E493A34003F68001F237
:10001F0008DFF48029E493A3F85407240CC8C333F2
:10002F00C4540F4420C8834004F456800146F6DFC1
:10003F00E4800B010204081020408090020EE47E41
:10004F00019360BCA3FF543F30E509541FFEE493B6
:10005F00A360010ECF54C025E060A840B8E493A37D
:10006F00FAE493A3F8E493A3C8C582C8CAC583CAA8
:10007F00F0A3C8C582C8CAC583CADFE9DEE780BE60
:0102250000D8
:00000001FF
