:03000000020003F8
:0C000300787FE4F6D8FD75812002004AE9
:1001FE000B10C0F9A4B0999282F88090FF0808FF06
:07020E00FFFFFFFFFFFFFFF0
:1001E50012025D7F431201298F1B7F411201298F66
:0901F5001C12015912008F80EA6E
:0C025D0090800074FFF090A000E4F022FC
:020129008F1D28
:10012B0012024E7F901200F412022DAF1D1200F43A
:10013B0012022D12024E7F911200F412022D1201A7
:0D014B00858F1ED200120216120281AF1E17
:010158002284
:1001AB008F1F7F901200F412022D7F411200F41268
:0D01BB00022DAF1F1200F412022D0202816E
:1001C80090E00074FFF0A8077401088002C333D8D8
:0D01D800FC90C000F090E000EDF002026924
:10023E0090E00074FFF090C000F090E000EFF0222C
:10015900E4F51DC3E51D9408748094805017AF1D04
:100169007E007408251DF8E6FD7C001201C8120204
:0C01790069051D80DE7FFF7E0002023E53
:0B0269000000007F0B7EBEDEFEDFFC0D
:010274002267
:10008F00E51C75F0648475F00A84741025F0F8E6A9
:10009F00F508E51C75F00A8475F00A84741025F0D4
:1000AF00F8E6F509E51C75F00A84741025F0F8E6FA
:1000BF00F50AE51B75F0648475F00A84741025F059
:1000CF00F8E6F50DE51B75F00A8475F00A847410D7
:1000DF0025F0F8E6F50EE51B75F00A84741025F08F
:0500EF00F8E6F50F2208
:04027500D2A07F058F
:0802790000AE071FEE70F92230
:0F024E00D2A1120275C2A17F05120279C2A022AD
:0C028100C2A1120275D2A17F0502027911
:10021600C2A0A20092A17F05120279120275C2A0A5
:07022600D2A17F050202795D
:10022D00120275A2A19200C2A07F05120279A2004E
:01023D00229E
:0200F400AD0756
:1000F600E4FCECC39408748094805024C2A07F056D
:10010600120279ED30E704D2A18002C2A17F051266
:100116000279D2A0ED25E0FD7F051202790C80D28E
:02012600C2A075
:0101280022B4
:10018500E4FCECC39408748094805017120275ED5A
:1001950025E0FD30A103430501C2A07F05120279C8
:0501A5000C80DFAF0536
:0101AA002232
:10000F000201E5E493A3F8E493A34003F68001F221
:10001F0008DFF48029E493A3F85407240CC8C333F2
:10002F00C4540F4420C8834004F456800146F6DFC1
:10003F00E4800B01020408102040809001FEE47E52
:10004F00019360BCA3FF543F30E509541FFEE493B6
:10005F00A360010ECF54C025E060A840B8E493A37D
:10006F00FAE493A3F8E493A3C8C582C8CAC583CAA8
:10007F00F0A3C8C582C8CAC583CADFE9DEE780BE60
:0102150000E8
:00000001FF
