:03000000020012E9
:0C001200787FE4F6D8FD75810802000339
:0F00030012006D7F5A12008E7FA512008E80FEB4
:10006D0053877F759850538EBF538EFE53890F4320
:10007D008920758BFD758DFDC2ABD28ED2ACD2AF02
:01008D002250
:03002300020026B2
:10002600C0E0C0F0C083C082C0D075D000C000C0A0
:1000360001C002C003C004C005C006C00730980C4A
:10004600C298859908E50804FF12008ED007D006ED
:10005600D005D004D003D002D001D000D0D0D082B9
:07006600D083D0F0D0E0329E
:08008E008F993099FDC29922FF
:00000001FF
