:0300000002019D5D
:0C019D00787FE4F6D8FD75813B0201E498
:100336000A2BC0F9A4B0999282F880900821FFFF99
:10034600FFFFFFFFFFFFC10001370202290019016D
:100356003B00013A00013900013500013600013841
:0303660000C101D2
:100496001204F8C2B41202ED1204C290800074FE77
:0604A600F012000E80FBC5
:0C04F80090800074FFF090A000E4F0225F
:1004C200438E805389F0758AAE758CFBC28DD28CB7
:0504D200D2A9D2AF2207
:03000B000202905E
:10029000C0E0C0D075D000C006C0070539E53B708E
:1002A00006C200F539803DD200053AE53964647034
:1002B000040535F539E53564647004153BF535E51D
:1002C0003AD395375004D2B4801AAF3A7E00C3EFC8
:1002D000940A748094805004C2B48008EF640A4E7B
:0D02E0007002F53AD007D006D0D0D0E03241
:1004620090E00074FFF0A8077401088002C333D83B
:0D047200FC90C000F090E000EDF0020504E9
:1004E80090E00074FFF090C000F090E000EFF02280
:10039A00E4F50BC3E50B9408748094805017AF0BF7
:1003AA007E007421250BF8E6FD7C0012046212051A
:0C03BA0004050B80DE7FFF7E000204E8DB
:10036A007525FFE53B75F06484242BF8E6F526E550
:10037A003B75F00A8475F00A84742B25F0F8E6F5CB
:10038A0027E53B75F00A84742B25F0F8E6F5282258
:1003C6007525FFAE29AF2A7C007D0A12023B742BED
:1003D6002FF8E6F526AE29AF2A7C007D0A12023BED
:0B03E600742B2DF8E6F5277528C622C1
:1004D7007521BF742B2FF8E6F5227523BF7524FF0E
:0104E70022F2
:0B0504000000007F0B7EBEDEFEDFFC6F
:01050F0022C9
:1002ED001204187FCC1203F17F441203F17F0A7EB2
:1002FD000012047F1204187FCC1203F17FBE12038B
:10030D00F112043F8F0812043F7529008F2AE52A48
:10031D00F529E508F52AE529C4F854F0C868F5294A
:08032D00E52AC4540F48F52A2B
:0103350022A5
:10047F008E098F0AE50A150A7002150914450960DD
:07048F000512039A80EE2222
:10000E00853836E536540F14603E14606F24026056
:10001E00030200BD20B31C12039A20B30820B305BF
:10002E0012039A80F8E53604F53875370390800090
:10003E0074FDF020B07912039A20B00820B005129A
:10004E00039A80F8B201806720B31C12039A20B382
:10005E000820B30512039A80F8E53604F538753793
:10006E000790800074FBF020B04512039A20B00870
:10007E0020B00512039A80F8B201803320B31D120E
:10008E00039A20B30820B30512039A80F8E53624AC
:10009E00FEF53875370290800074FEF020B0101215
:1000AE00039A20B00820B00512039A80F8B201E539
:1000BE003654F024F0603624F0605F242060030292
:1000CE00016020B21712039A20B20820B205120363
:1000DE009A80F8E5362410F538753B3C20B1731242
:1000EE00039A20B16220B15F12039A80F820B217F2
:1000FE0012039A20B20820B20512039A80F8E53650
:10010E002410F538753B7820B14812039A20B108B7
:10011E0020B10512039A80F8802D20B21912039A8D
:10012E0020B20820B20512039A80F8E53624E0F5D5
:10013E0038E4F53BC2B420B11912039A20B108205D
:10014E00B10512039A80F8E536540FF538E4F53B05
:10015E00C2B430010F7F047E001204D71203C61200
:10016E0002ED8028E536540FFD7C0070047F01807F
:10017E0014ED64014C70047F02800AE536540F645E
:0F018E000270097F03FE1204D712036A02039A5C
:0404AC007F057E004A
:1004B0007C007D0A120229EF1FAC0670011E4C70F1
:0104C000F645
:0104C1002218
:0203F100AB0758
:1003F300E4FAEAC39408748094805012C294EB1315
:1004030092941204ACD294EBC313FB0A80E47F05ED
:050413007E000204B0B0
:10043F00E4FAEAC39408748094805014C294EBC316
:10044F0013FBD2943094034303801204AC0A80E26E
:02045F00AF03E9
:010461002278
:10041800C202D2947F0C7E001204B0C2947F507E38
:10042800001204B0D2947F0A7E001204B0A2949203
:06043800021204ACA20256
:01043E00229B
:1001A900020496E493A3F8E493A34003F68001F2D2
:1001B90008DFF48029E493A3F85407240CC8C33357
:1001C900C4540F4420C8834004F456800146F6DF26
:1001D900E4800B0102040810204080900336E47E7D
:1001E900019360BCA3FF543F30E509541FFEE4931B
:1001F900A360010ECF54C025E060A840B8E493A3E2
:10020900FAE493A3F8E493A3C8C582C8CAC583CA0C
:10021900F0A3C8C582C8CAC583CADFE9DEE780BEC4
:010369000093
:10022900EF8DF0A4A8F0CF8CF0A428CE8DF0A42EE9
:02023900FE22A3
:10023B00BC000BBE0029EF8DF084FFADF022E4CCA7
:10024B00F875F008EF2FFFEE33FEEC33FCEE9DEC70
:10025B00984005FCEE9DFE0FD5F0E9E4CEFD22EDB6
:10026B00F8F5F0EE8420D21CFEADF075F008EF2F00
:10027B00FFED33FD4007985006D5F0F222C398FDF1
:05028B000FD5F0EA228E
:00000001FF
