:030000000200817A
:0C008100787FE4F6D8FD75810702008D41
:08008D0012007312000380FB56
:0E007300E5A0541F44AFF5A0E4F580F5A022EF
:0E00640000007F167E037DE3DDFEDEFCDFFA8A
:01007200226B
:10000300E5A0541F448FF5A0E4FBFAE4F580120049
:10001300647580FF1200640BBB00010AEB64034AA2
:1000230070E97580FE120064E4FAFBE58025E0F5D3
:10003300801200640BBB00010AEB64074A70EC7585
:100043008001120064E4FAFBE58025E004F58012E8
:1000530000640BBB00010AEB64074A70EB75A00058
:01006300227A
:00000001FF
