:030000000200D427
:0C00D400787FE4F6D8FD75810B0200E097
:1000C400C0F9A4B0999282F880908883C6A1868EE4
:0800E0001200B212000380FBC4
:10007700EE701FEF24FB600E14600F146010240352
:10008700701075A0802275A0A02275A0C02275A04F
:06009700E02275A000222A
:1000B2007F057E00120077E4F5801F1200777580BD
:0200C200FF221B
:10000300E4F508C3E50894087480948050407F06A3
:100013007E00120077E5087008750A01850A808062
:1000230008E50A25E0F50AF5807F077E00120077D0
:10003300E4F509C3E509940A74809480500C85099A
:100043000BE50B12009D050980E9050880B57F06C5
:100053007E001200777580FF0F120077E4F508C366
:10006300E5089410748094805009E50812009D05FA
:030073000880EC16
:010076002267
:06009D009000C493F58001
:0E00A30000007F097E687D8BDDFEDEFCDFFA4B
:0100B100222C
:00000001FF
