:03000000020629CC
:0C062900787FE4F6D8FD75816102067050
:1007A2000E49C0F9A4B0999282F88090FFC68C8855
:1007B2000857010204081020408008410A0A0A0A68
:1007C2000A0A0A0A08360000000000000000082E8B
:1007D2000000000000000000013E00012D00016148
:1007E20000012C00013F00C1000123190127190457
:0F07F2002800000000022500000121000122FF65
:100A6300120A7D120802120AF0120AC9120599121B
:0A0A7300085D12048F12095B80F287
:100A7D00E5A0541F4480F5A07580FFE5A0541F44E8
:0A0A8D00A0F5A0E4F58053A01F229D
:100AC900438E805389F0758A20758CD1C28DD28C62
:050AD900D2A9D2AF22FA
:03000B000206B535
:1006B500C0E0C0F0C083C082C0D075D000C000C00B
:1006C50001C002C003C004C005C006C007053EE561
:1006D5003E640A7002F53E052DAF2D7E00BE010673
:1006E500BFF403752D000561E56164087002F561CD
:1006F50074412561F8E6FD74362561F8E6FBAF61C6
:100705001208ED742E2561F8E6FDAF611208B3D02D
:1007150007D006D005D004D003D002D001D000D038
:0A072500D0D082D083D0F0D0E032B3
:10072F00E4FFC2C4D2C2D2B5D2B420B3027F042038
:10073F00B2027F0520B1027F0620B0027F07D2C42C
:10074F00C2C2D2B5D2B420B3027F0820B2027F0951
:10075F0020B1027F0A20B0027F0BD2C4D2C2C2B531
:10076F00D2B420B3027F0C20B2027F0D20B1027FE2
:10077F000E20B0027F0FD2C4D2C2D2B5C2B420B302
:10078F00027F1020B2027F1120B1027F1220B0022F
:02079F007F13C6
:0107A1002235
:10085D00E53E7051753E0112072F8F60E55F6560B3
:10086D00FF5560F540E560F45FF52485605F24FB7E
:10087D00601F24FD601E14602424057028052CE5DE
:10088D002C64037002F52CE52C6402701885272367
:10089D0022B20022E52C6401700B152722E52C6491
:0608AD0001700205272284
:10048F00E52D6003020598752D011208028F2B8E42
:10049F002A8D298C28E52C14607A147003020541EB
:1004AF002402600302059875410BE4FBFA7920786A
:1004BF0041AF2BAE2AAD29AC2812020F1203638F66
:1004CF0045AF2BAE2AAD29AC28120363EF75F00AA6
:1004DF008485F046E4FFFE7D207C41AB2BAA2AA940
:1004EF0029A8281201061203637C007D0A1203F665
:1004FF008D47E4FFFE7DC87C42AB2BAA2AA929A811
:10050F00281201061203637C007D0A1203F68D4840
:10051F00753B012275410C75450A75460AE527752D
:10052F00F00A84F547E52775F00A8485F048E4F56D
:10053F003B22AE25AF267C007D641203E47D33128F
:10054F00044B8E258F2675410D75450A7C007D6401
:10055F0012044B8F46AE25AF267C007D0A12044B4A
:10056F007C007D0A12044B8D47AE25AF267C007DA3
:10057F000A12044B7E007F0ACFCDCFCECCCE120411
:0A058F004B8D48753B01E4F53C225A
:10095B00E52C1460111460182402701C752F01E42F
:10096B00F530F5318012E4F52F753001F531800843
:10097B00E4F52FF530753101200004752E0122E4CA
:03098B00F52E2224
:10059900200025AC23E412032FAB2BAA2AA929A8F2
:1005A900281202AC5008E4F525F526FF806E752562
:1005B900007526FF7FFF8064E4FFFE7DA07C41ABD0
:1005C9002BAA2AA929A8281202AC6002500A75256B
:1005D900007526337F338044E4FFFE7D207C42ABE7
:1005E9002BAA2AA929A8281202AC600250267FCD7D
:1005F9007ECC7DF47C40AB2BAA2AA929A82812011C
:1006090006E4FBFA79CC78C21200151203638E2531
:100619008F2680087525007526CC7FCC120A2522E5
:1008ED007580FFE5A0541F44E0F5A053A01F745779
:1008FD002FF8E6F580E5A0541F44C0F5A053A01FC6
:10090D0074492DF8E6F580EB600353807FE5A05424
:09091D001F44E0F5A053A01F22C5
:1008B300ED600FA8077401088002C333D8FC4221FE
:1008C300800EA8077401088002C333D8FCF45221B8
:1008D300E52165226013E521F4F580E5A0541F446A
:0908E30080F5A053A01F8521221D
:0108EC0022E9
:10080200E4F509F50AF50EF50DF50CF50B1209B52F
:100812007FCC12098E7F4412098E1209B57FCC1249
:10082200098E7FBE12098E120A028F08120A02EF87
:1008320054F8701EEF420AE50AAD08FCEC12032AD6
:10084200E4FBFA7980783D1201068F0E8E0D8D0C35
:0A0852008C0BAF0EAE0DAD0CAC0B1D
:01085C002279
:0E0AF00000007F237E337DB6DDFEDEFCDFFAE4
:010AFE0022D5
:100A25008F08120AFF7F90120926120ADE7F4312F1
:100A35000926120ADEAF08120926120ADE020B0E7B
:040A9700D2A07F0565
:100A9B00000000000000000000000000000000AE9D
:060AAB00071FEE70EB22B4
:0F0AFF00D2A1120A97C2A17F05120A9BC2A022A0
:0C0B0E00C2A1120A97D2A17F05020A9B27
:02092600AD071B
:10092800E4FCECC39408748094805024C2A07F0532
:10093800120A9BED30E704D2A18002C2A17F051202
:100948000A9BD2A0ED25E0FD7F05120A9B0C80D200
:02095800C2A03B
:01095A00227A
:1009DC00E4FCECC39408748094805017120A97EDD1
:1009EC0025E0FD30A103430501C2A07F05120A9B3F
:0509FC000C80DFAF05D7
:010A010022D2
:100ADE00120A97A2A1E433FDC2A07F05120A9BAFB2
:010AEE000502
:010AEF0022E4
:100AB100C2A0EF24FF92A17F05120A9B120A97C2DE
:080AC100A0D2A17F05020A9BEF
:040A45007F057E00AB
:100A4900EF1FAA0670011E4A600FE4FDEDC3940C66
:090A59007480948050EA0D80F3D2
:010A62002271
:02098E00A907B7
:10099000E4FBEBC39408748094805012C294E91372
:1009A0009294120A45D294E9C313F90B80E47F05AF
:0509B0007E00020A496F
:100A0200E4FBEBC39408748094805014C294ECC34A
:100A120013FCD294309403430480120A450B80E203
:020A2200AF041F
:010A240022AF
:1009B500C201D2947F0C7E00120A49C2947F507EF8
:1009C50000120A49D2947F0A7E00120A49A2949223
:0609D50001120A45A20117
:0109DB0022F9
:10000E000203CFE86480F8E933E83360110460F04E
:10001E00ED33EC337009E8FCE9FDEAFEEBFF220458
:10002E0060DED3EB9FEA9EE99DE8C2E78CF0C2F753
:10003E0095F0400CE8CCF8E9CDF9EACEFAEBCFFB1F
:10004E0012039A85D0F05804700320D5B3E80470DB
:10005E00075002B2D50203D992D5EC0460F7E4CC76
:10006E00C0E0C398F8603B94186008400DD0E0FBE8
:10007E000203B1E4FBFAC9FC8028E830E406E4C9C7
:10008E00FBE4CAFCE830E305E4C9CACBFCE854073C
:10009E006010F8C3E913F9EA13FAEB13FBEC13FC47
:1000AE00D8F130F52FC3E49CFCEF9BFFEE9AFEEDEA
:1000BE0099FDD0E0FBEF4E4D4C701222DB03020394
:1000CE00D6EC2CFCEF33FFEE33FEED33FDED30E7D7
:1000DE00EB0203B1EF2BFFEE3AFEED39FDD0E0FB64
:1000EE0050130BBB00030203D9ED13FDEE13FEEF0D
:0800FE0013FFEC13FC0203B137
:10010600EC4D6011E8497017ED33EC3304600DE4F3
:10011600FCFFFEFD22E933E8330470F80203CF1238
:10012600039A58046009E4CC248150062850090239
:1001360003D92840030203D6C0E0EB4A7044B980D5
:1001460006D0E0FB0203C5EF4E701CBD8008EBFF36
:10015600EAFEE9FD80EBE98DF0A4FEE5F00201EF91
:10016600E9CDF9EAFEEBFFEF89F0A4FCE5F0CE89D4
:10017600F0A42EFFE435F0CD89F0A42DFEE435F091
:100186008067EF4E7005BD80D780C3EF8BF0A4ACBF
:10019600F0EE8BF0A42CFCE435F0F8EF8AF0A42CFA
:1001A600E5F038FCE433CB8DF0A42CFCE5F03BF80D
:1001B600EE8AF0A42CFCE5F038F8E433CF89F0A4FD
:1001C6002CFCE5F038CF3400CE89F0A42FFFE5F003
:1001D6003EFEE433C98DF0A42EFEE5F039CD8AF05B
:1001E600A42FFFE5F03EFEE43DFD33D0E0FB5007D3
:1001F6000BBB000F0203D9EC2CFCEF33FFEE33FEF2
:06020600ED33FD0203B11F
:10020C000203D9EC5D046005E8590470030203CFC6
:10021C0012039A580460F6EC4860F2EC7004FDFE90
:10022C00FF22C860DB2481C85009C39860025006C5
:10023C000203D69850CAF582E9294B4A7005AB8265
:10024C000203C575F0007C1A7880C3EF9BEE9AED23
:10025C0099400DC3EF9BFFEE9AFEED99FDE842F03D
:10026C00DC23ACF0D0E0FFD0E0FED0E0FDAB822090
:10027C00E7101BEB60BAEC2CFCEF33FFEE33FEED1A
:10028C0033FD0203B1E803F830E705C0F075F00068
:10029C00EF2FFFEE33FEED33FD40B830E7C280AAFE
:1002AC0074F8CC6480CCC86480C8F58204604FC3F9
:1002BC00EB9FF5F0EA9E42F0E99D42F0E89C45F098
:1002CC00603C501DE5825FFFE582D313CB5BCBF422
:1002DC002B5582FB50280ABA002409B9002008804B
:1002EC001DE5825BFBE582D313CF5FCFF4C3132FE5
:1002FC005582FF50090EBE00050DBD00010CC3EB6D
:10030C009FF5F0EA9E42F0E99D42F0E89C45F060D2
:09031C0007CC4820E701B3EC22F4
:1003250075F020800E75F010800575F0087D007E53
:10033500007F003392D530D503120481EC33401091
:10034500EF33FFEE33FEED33FDEC33FCD5F0ED225C
:0E035500E5F0247EA2D513CC92E7CDCEFF2298
:10036300EDD2E7CD33EC3392D524814006E4FFFE92
:10037300FDFC22FCE4CFCECDCC24E0501174FF80F1
:10038300EDC3CC13CCCD13CDCE13CECF13CF04708E
:07039300F030D5DE02048109
:10039A00E9D2E7C933E833F892D5EDD2E7CD33ECA9
:0703AA0033FC5002B2D52222
:1003B100EC30E7100FBF000C0EBE00080DBD0004AD
:1003C1000BEB6014A2D5EB13FCED92E7FD2274FF59
:1003D100FCFDFEFF22E480F8A2D574FF13FC7D80B2
:0303E100E480EFC6
:10063500020A63E493A3F8E493A34003F68001F26E
:1006450008DFF48029E493A3F85407240CC8C333C6
:10065500C4540F4420C8834004F456800146F6DF95
:10066500E4800B01020408102040809007A2E47E7C
:10067500019360BCA3FF543F30E509541FFEE4938A
:10068500A360010ECF54C025E060A840B8E493A351
:10069500FAE493A3F8E493A3C8C582C8CAC583CA7C
:1006A500F0A3C8C582C8CAC583CADFE9DEE780BE34
:0108010000F6
:1003E400EF8DF0A4A8F0CF8CF0A428CE8DF0A42E2D
:0203F400FE22E7
:1003F600BC000BBE0029EF8DF084FFADF022E4CCEB
:10040600F875F008EF2FFFEE33FEEC33FCEE9DECB3
:10041600984005FCEE9DFE0FD5F0E9E4CEFD22EDF9
:10042600F8F5F0EE8420D21CFEADF075F008EF2F43
:10043600FFED33FD4007985006D5F0F222C398FD34
:050446000FD5F0EA22D1
:10044B00C2D5EC30E709B2D5E4C39DFDE49CFCEECC
:10045B0030E715B2D5E4C39FFFE49EFE1203F6C34B
:10046B00E49DFDE49CFC80031203F630D507C3E446
:06047B009FFFE49EFE223B
:0E048100C3E49FFFE49EFEE49DFDE49CFC228C
:00000001FF
