:03000000021009E2
:0C100900787FE4F6D8FD75818802105055
:101549002425642C252E32660D0A002325642C25BA
:0C155900640D0A004552524F520D0A006A
:1011110008810A0A0A0A0A0A0A0A0871000000007C
:101121000000000008790000000000000000022C0F
:101131000000C109C10BC10A014A00014900013285
:1011410000014E00C10C01310001480001301E01B7
:101151002623014D1E012E230253FFFE024B0000E8
:10116100042700000000013D0002220000022400CB
:01117100007D
:10120A0012152C1213AE7B007A007953755902E439
:10121A00FF121179E553F54BE554F54C12160812F5
:10122A0013AE8F2A8E298D288C271215CB12000E09
:10123A00120D38120AFE12128C120ED212134080AC
:01124A00EFB4
:100D3800E54A6003020ED1754A011210958F51E5FC
:100D4800517002F552E5516550FF5551F54FE55187
:100D5800F45FF52B855150E54F6006852C24852DD1
:100D680025E52B6041852C22852D2324F460102451
:100D7800FC601614600E2404701275520D800D75F7
:100D8800520C80087552118003755210C3E52395E3
:100D980025FFE5229524FED3EF94E8EE9403400660
:100DA80074102552F552E55224F4606F24FC700348
:100DB800020E42147003020E7C24F57003020ECF5B
:100DC800147003020ECC24106003020ED1B20C3052
:100DD8000C04E4F54822E4F531E54DB53009E52683
:100DE800652E7003020ED1054CE54C7002054BE5EB
:100DF8004BF5537E00E54CFF8E4BF54C8F547B0032
:100E08007A007953755902E4FF1212C9E553F54B7C
:100E1800E554F54C85262E85304D22200C0E0531E3
:100E2800E53164036003020ED1F531220548E54837
:100E380064026003020ED1F54822200C03020ED191
:100E4800AF487E00EF7014D3E5309401748094802D
:100E58005005E4F530800415301530EF64014E700C
:100E680068D3E5269405748094805004E4F526221E
:100E780074FB804B300C52AF487E00EF701FAD30D2
:100E8800C3ED946174809480400FD3ED94657480B1
:100E980094805005753063800405300530EF640197
:100EA8004E7026AF26C3EF945E74809480400ED3B4
:100EB800EF94687480948050047526632274052525
:090EC80026F52622B20A22B20925
:010ED10022FE
:100AFE00E5496003020D377549011213AE8F2A8E38
:100B0E00298D288C271211C58F3DC3EF94637480F5
:100B1E0094804003753D63300C03020CECE53114F8
:100B2E007003020BBA147003020C07240260030256
:100B3E000D377881760B7884760AE4FBFA79207883
:100B4E0041AF2AAE29AD28AC2712012F12028378AD
:100B5E0085A607AF2AAE29AD28AC27120283EF7502
:100B6E00F00A847886A6F0E4FFFE7D207C41AB2A55
:100B7E00AA29A928A8271200261202837C007D0A22
:100B8E001205F67887A605E4FFFE7DC87C42AB2AE7
:100B9E00AA29A928A8271200261202837C007D0A02
:100BAE001205F67888A60578767601227881760C7D
:100BBE007885760A08760AE53D75F06484FFFD7C3B
:100BCE00007004760A80047886A607E53D75F00A63
:100BDE008475F00A84AFF0EF7010ED4C70067887D4
:100BEE00760A800AE47887F680047887A607E53DC2
:100BFE0075F00A847888020D117881760DAE4BAFB0
:100C0E004C7C277D101205F6EF4E78847004760A20
:100C1E008002A607AE4BAF4C7C037DE81205F67C36
:100C2E00007D0A1205F6AA04AB05EB4A701BAE4B0B
:100C3E00AF4C7C277D101205F6EF4E700678857648
:100C4E000A800CE47885F68006AF037885A607AE99
:100C5E004BAF4C7C007D641205F67C007D0A1205BC
:100C6E00F6AA04AB05EB4A701BAE4BAF4C7C037D72
:100C7E00E81205F6EF4E70067886760A800CE47858
:100C8E0086F68006AF037886A607AE4BAF4C7C0087
:100C9E007D0A1205F67C007D0A1205F6AA04AB0544
:100CAE00EB4A701AAE4BAF4CFC7D641205F6EF4E5C
:100CBE0070067887760A800CE47887F68006AF0394
:100CCE007887A607AE4BAF4C7C007D0A1205F6ED79
:100CDE004C70047888F622AF057888A60722E5487E
:100CEE001460270470437881760E78847601087636
:100CFE000A08760AE53075F00A8408F6E53075F0D4
:100D0E000A8408A6F0E47876F6227881760E788446
:100D1E00760208760A08760AE52675F00A8408F641
:0A0D2E00E52675F00A8408A6F022FD
:10128C00AC30E412024FAB2AAA29A928A8271201D4
:10129C00CC60084006787976018004E47879F6E52C
:1012AC003DC395265006787A76018004E4787AF668
:0D12BC00300A05787B760122E4787BF6226B
:100ED200E5326003020F7B753201E52F7003020FCA
:100EE2007BE53E64537034E53F6454702EE5406404
:100EF2000D7028E541640A7022E52F6404701C75A8
:100F020058FF755915755A49F55B853D5C852A6010
:100F120085295F85285E85275D803DE53E645070AA
:100F22003AE53F64417034E5406452702EE5416415
:100F3200417028E542640D7022E543640A701CE5A5
:100F42002F640670167558FF755915755A54F55B5E
:100F520085265CF55D85305EFB800B7558FF755903
:100F620015755A5D7B007A0079331206EB7B007AA5
:0A0F72000079331214A6E4F52F22D3
:10134000200A047F15800DE53DD3952650047F6764
:1013500080027FCD1214EEA209300B01B35019E4C4
:10136000F553F554FB7A007953755902FF1212C9EF
:09137000E553F54BE554F54C2260
:10000E00438E805389F0758A20758CD1C28DD28C27
:05001E00D2A9D2AF22BF
:03000B00020F7C65
:100F7C00C0E0C0F0C083C082C0D075D000C000C03B
:100F8C0001C002C003C004C005C006C007054AE585
:100F9C004A640A7002F54A0549E54964C87002F5CD
:100FAC00490532E53264C87002F532054EE54E64EF
:100FBC00087002F54E7481254EF8E6FD7C007471C4
:100FCC00254EF8E6FB7A00AF4E12124B7479254E83
:100FDC00F8E6FD7C00AF4E121305052DE52D7002D1
:100FEC00052CD007D006D005D004D003D002D001F8
:0D0FFC00D000D0D0D082D083D0F0D0E03231
:030023000213E2E3
:1013E200C0E0C0D075D000C000309816C3E52F947D
:1013F2001474809480500B743E252FF8A699052F03
:09140200C298D000D0D0D0E03235
:1015E200C0F9A4B0999282F88090FFC6C7C88C0156
:0715F20002040810204080F4
:061172000108000109FF65
:10152C00E5A0541F4480F5A07580FF53A01FE5A0D3
:0D153C00541F44A0F5A0E4F58053A01F2229
:10109500E4FF538EEFC2C4D2C2D2B5D2B420B3029C
:1010A5007F0420B2027F0520B1027F0620B0027FB7
:1010B50007D2C4C2C2D2B5D2B420B3027F0820B2CF
:1010C500027F0920B1027F0A20B0027F0BD2C4D271
:1010D500C2C2B5D2B420B3027F0C20B2027F0D206C
:1010E500B1027F0E20B0027F0FD2C4D2C2D2B5C2E8
:1010F500B420B3027F1020B2027F1120B1027F120B
:0B11050020B0027F1375B0FF438E1076
:0111100022BC
:10124B00E5A0541F44E0F5A07580FF53A01FE5A057
:10125B00541F44C0F5A0EF9015F193F58053A01FD8
:10126B00E5A0541F44E0F5A074E22DF58274153C03
:10127B00F583E493F580EB4A600353807F53A01F03
:01128B002240
:10130500ED4C600FA8077401088002C333D8FC4276
:1013150008800EA8077401088002C333D8FCF45274
:1013250008E50865096013E5A0541F4480F5A0E5AC
:0A13350008F4F58053A01F85080995
:01133F00228B
:1015CB00759850438E01438E0475D78F75D6FD43A6
:0715DB008E10D2ACD2AF224A
:080003008F993099FDC299228A
:1014A6008B558A568957AB55AA56A95712059E6081
:1014B600130557E5577002055614F912059EFF12DB
:0514C600000380E2229A
:0616230000007F21DFFE44
:01162900229E
:10156500E4FEEEC3940874809480500DD290121658
:0915750023C2901216230E80E936
:01157E00224A
:1011C50053890FE4F58BF58D121565D28E30910399
:1011D500308FFAC28E308F0AC28FE4F58DF58B7F82
:1011E500FF22AF8DEFFEAD8BEDFFE4F58DF58BADF9
:1011F50007AC0612024A7B967A43798B783C12003B
:041205002612028328
:0112090022C2
:04157F00D2A07F0572
:10158300000000000000000000000000000000AEAA
:06159300071FEE70EB22C1
:0F15F900D2A112157FC2A17F05121583C2A022B5
:0C161700C2A112157FD2A17F050215832D
:02137900AD07BE
:10137B00E4FCECC39408748094805024C2A07F05D5
:10138B00121583ED30E704D2A18002C2A17F0512B2
:10139B001583D2A0ED25E0FD7F051215830C80D2BD
:0213AB00C2A0DE
:0113AD00221D
:10148000E4FCECC3940874809480501712157FED2F
:1014900025E0FD30A103430501C2A07F051215839D
:0514A0000C80DFAF0528
:0114A5002224
:081599001215F97FA01213796D
:1015A10012157FA2A1E433FDC2A07F05121583AFFE
:0115B1000534
:0115B2002216
:1015B300C2A0EF24FF92A17F0512158312157FC2EB
:0815C300A0D2A17F05021583EF
:101179008F558B568A578958121599AF551213797D
:101189001215A11215F97FA11213791215A1AF59E0
:101199001559EF6024121480AB560558E558AA5723
:1011A9007002055714F9EF1205E4E5596004E4FFEC
:0C11B90080027F011215B380D5021617CA
:1012C9008F558B568A578958121599AF551213792C
:1012D9001215A1AF591559EF601FAB560558E558BE
:1012E900AA577002055714F912059EFF12137912B5
:0C12F90015A17FC812158380DA021617B9
:1014EE00AB071215F97F901213791215A17F4312D3
:1014FE0013791215A1AF031213791215A102161743
:04150E007F057E00D7
:10151200EF1FAA0670011E4A600FE4FDEDC3940C92
:091522007480948050EA0D80F3FE
:01152B00229D
:02140B00A9072F
:10140D00E4FBEBC39408748094805012C294E913EA
:10141D00929412150ED294E9C313F90B80E47F0553
:05142D007E0002151213
:1014CB00E4FBEBC39408748094805014C294ECC377
:1014DB0013FCD29430940343048012150E0B80E25C
:0214EB00AF044C
:0114ED0022DC
:10143200C200D2947F0C7E00121512C2947F507E9D
:1014420000121512D2947F0A7E00121512A29492F3
:061452000012150EA200BD
:011458002271
:1013AE001214327FCC12140B7F4412140B1214320F
:1013BE007FCC12140B7FBE12140B1214CBA9071282
:1013CE0014CBEFAD01FCEC12024AE4FBFA79807803
:0413DE004102012F98
:0E16080000007F237E337DB6DDFEDEFCDFFAC0
:0116160022B1
:10002600EC4D6011E8497017ED33EC3304600DE4D4
:10003600FCFFFEFD22E933E8330470F80202EF12FA
:1000460002BA58046009E4CC2481500628500902FB
:1000560002F92840030202F6C0E0EB4A7044B98078
:1000660006D0E0FB0202E5EF4E701CBD8008EBFFF8
:10007600EAFEE9FD80EBE98DF0A4FEE5F002010F52
:10008600E9CDF9EAFEEBFFEF89F0A4FCE5F0CE89B5
:10009600F0A42EFFE435F0CD89F0A42DFEE435F072
:1000A6008067EF4E7005BD80D780C3EF8BF0A4ACA0
:1000B600F0EE8BF0A42CFCE435F0F8EF8AF0A42CDB
:1000C600E5F038FCE433CB8DF0A42CFCE5F03BF8EE
:1000D600EE8AF0A42CFCE5F038F8E433CF89F0A4DE
:1000E6002CFCE5F038CF3400CE89F0A42FFFE5F0E4
:1000F6003EFEE433C98DF0A42EFEE5F039CD8AF03C
:10010600A42FFFE5F03EFEE43DFD33D0E0FB5007B3
:100116000BBB000F0202F9EC2CFCEF33FFEE33FEB3
:06012600ED33FD0202D1E1
:10012C000202F9EC5D046005E8590470030202EF69
:10013C001202BA580460F6EC4860F2EC7004FDFE52
:10014C00FF22C860DB2481C85009C39860025006A6
:10015C000202F69850CAF582E9294B4A7005AB8227
:10016C000202E575F0007C1A7880C3EF9BEE9AEDE5
:10017C0099400DC3EF9BFFEE9AFEED99FDE842F01E
:10018C00DC23ACF0D0E0FFD0E0FED0E0FDAB822071
:10019C00E7101BEB60BAEC2CFCEF33FFEE33FEEDFB
:1001AC0033FD0202D1E803F830E705C0F075F0002A
:1001BC00EF2FFFEE33FEED33FD40B830E7C280AADF
:1001CC0074F8CC6480CCC86480C8F58204604FC3DA
:1001DC00EB9FF5F0EA9E42F0E99D42F0E89C45F079
:1001EC00603C501DE5825FFFE582D313CB5BCBF403
:1001FC002B5582FB50280ABA002409B9002008802C
:10020C001DE5825BFBE582D313CF5FCFF4C3132FC5
:10021C005582FF50090EBE00050DBD00010CC3EB4D
:10022C009FF5F0EA9E42F0E99D42F0E89C45F060B3
:09023C0007CC4820E701B3EC22D5
:1002450075F020800E75F010800575F0087D007E34
:10025500007F003392D530D50312064BEC334010A6
:10026500EF33FFEE33FEED33FDEC33FCD5F0ED223D
:0E027500E5F0247EA2D513CC92E7CDCEFF2279
:10028300EDD2E7CD33EC3392D524814006E4FFFE73
:10029300FDFC22FCE4CFCECDCC24E0501174FF80D2
:1002A300EDC3CC13CCCD13CDCE13CECF13CF04706F
:0702B300F030D5DE02064B1E
:10068F00E56C2458F8E6056C227855300702785847
:10069F00E475F00112065902059E2000EB7F2ED261
:1006AF00008018EF540F2490D43440D4FF30040B43
:1006BF00EF24BFB41A0050032461FFE56D600215EB
:1006CF006D0570E5707002056F30070D7855E47594
:1006DF00F001120659EF0205E40214597403D20710
:1006EF008003E4C207F56C8B558A568957E4F56D84
:1006FF00F56FF570E56D60077F201206CA80F575FE
:10070F006EFFC201C200C202C203C205C206C20806
:10071F00120698FF700D3007057F001206DBAF70D1
:10072F00AE6F22B4255FC2D5C204120698FF24D043
:10073F00B40A00501A75F00A786D30D50508B6FF67
:10074F000106C6A426F620D5047002D20380D92450
:10075F00CFB41A00EF5004C2E5D2040209C8D20187
:10076F0080C6D20080C0D20280BCD2D580BAD2055A
:10077F0080B47F201206CA2002077401B56D0040B5
:10078F00F112068FFF1206CA020703D208D20680A3
:10079F009512068FFB12068FFA12068FF94A4B70CD
:1007AF000679BF7A0A7BFF20022EE56D602A7E0054
:1007BF008E827583001205B760060EEE656E70F0BF
:1007CF00C2D5EBC0E0EAC0E0E9C0E0EE120A28D0E3
:1007DF00E0F9D0E0FAD0E0FB12059EFF60AAEBC073
:1007EF00E0EAC0E0E9C0E01206CAD0E02401F9D087
:1007FF00E03400FAD0E0FBE56E0460DCD56ED98002
:10080F0087D20280A2120A0B60F7E56E7001041204
:10081F000304A96E600DE56E600914F56E120AB23D
:10082F00EF60F3EA30E702F404C3995077EAF42556
:10083F006E0430E701E404F56E800D120A0B60C1FF
:10084F00EA056E256E120304EA786BF630E701E4D1
:10085F00256E04D56E0420050114120A28E4C0E0A9
:10086F00120AB2786BE6601320E70714F61206B28D
:10087F00802204F6D0E014C0E07F001206B2E56ECD
:10088F0060071206A9156E800B3005031206A9D05A
:10089F00E0020703D0E00480C5120A0B60A0E56EEA
:1008AF0004120304786BEAF6E56E2005026001047A
:0508BF002404120A28C8
:1008C40074FF04C0E0120AB21206B2E56E200502FB
:1008D40060031206A9D0E0B56EE87F451206BC7825
:1008E4006BE67F2B30E7047F2DF404C0E01206CAC8
:1008F400D0E075F00A84C0F01206B3D0E01206B35B
:10090400020703791080027908C206C2088008D25F
:10091400D5790A8004790AC2D5E56E047002F56EB1
:10092400E4FAFDFEFF12068FFC7B08200113120679
:100934008FFD7B1030000A12068FFE12068FFF7B9C
:1009440020EC3382D592D55013C3E43000069FFFC8
:10095400E49EFEE42001039DFDE49CFCE4CBF8C28C
:1009640001EC700CCFCECDCCE824F8F870F38017EE
:10097400C3EF33FFEE33FEED33FDEC33FCEB33FB1F
:10098400994002FB0FD8E9EB300105F8D0E0C448E8
:10099400B201C0E00AEC4D4E4F78207B0070C2EAF1
:1009A400B56E0040BCC0E0120A2AD0F0D0E02001AD
:1009B40004C4C0E0C4B201C0F01206B3D0F0D5F054
:1009C400EB02070312066907A05309075807714C85
:1009D400076D42090B4F091344091349078643095C
:1009E4001955084A4608A8450814470ADF500775F0
:1009F4002D07792E079C2B077D23079A200AC82AE6
:100A040007354800000794E56EB4FF03756E0612BF
:100A1400068FFC12068FFD12068FFE12068FFF78DA
:100A240064020333790AA2D5200314300509B910EE
:100A3400020404B9080104A2D520060250010420CE
:100A440002689202B56D005034C0E07F2030031973
:100A54007F30A20272067205500F120A81C202C2CE
:100A640006C205C2087F30800F300503E9C0E012DA
:100A740006CA300503D0E0F9D0E0B56DCC300517D7
:100A84007F30B9100C1206CA7F583004077F788073
:100A940003B908031206CA3002057F2D0206CA7F75
:100AA400202008F87F2B2006F322920280CF7F00BB
:100AB400B4070050052464F8E6FF22286E756C6CB8
:100AC4002900D20112068F3001F8C201786D30D5A9
:100AD4000108F60207352D5043495812068F2403A6
:100AE400B405004001E4900ADA931206BB743A128A
:0A0AF40006BBD203756D040209076A
:1002BA00E9D2E7C933E833F892D5EDD2E7CD33EC8A
:0702CA0033FC5002B2D52203
:1002D100EC30E7100FBF000C0EBE00080DBD00048E
:1002E1000BEB6014A2D5EB13FCED92E7FD2274FF3A
:1002F100FCFDFEFF22E480F8A2D574FF13FC7D8093
:03030100E480EFA6
:10030400F920E72824F950037907E4F42402FB18C0
:10031400DBFDE624FB5014E9600DE4F618E604F670
:0F032400B40A08E4F6D9F57401F60A22C2D5220C
:10033300ED33EC3392D5FA602AB4FF33EDC2E77B99
:10034300FF60067A037958E4227A03796120D504A1
:100353007A03795C224E614E002B494E46002D49AB
:100363004E4600E47A08F608DAFC7B00740722E8BC
:10037300C0E0ECC0E0EDC0E0EEC0E0EFC0E0EA7545
:10038300F010A4CAABF075F04DA42BFBE435F0FCE0
:10039300EA2410FAEB34C5FBEC34D9FCEDC2E7FFD9
:1003A30075F056A4F42411C5F0F434C58FF0A42AD3
:1003B300E5F03BE43CF620E71412055ED0E0FFD005
:1003C300E0FED0E0FDD0E0FC12012F8014F4041213
:1003D300055ED0E0FFD0E0FED0E0FDD0E0FC1200EF
:1003E30026D0E0F8E6FAEDD2E7CD33EC332482FBF6
:1003F300E4C3CF33CFCE33CECD33CD33DBF37B0763
:1004030075F00A846004F6081B0AE5F0F6088FF01D
:10041300740AA4FFACF08EF0740AA42CFEACF05066
:10042300010C8DF0740AA42CFDE435F0F608DBDE34
:0304330074072229
:100436000202EFE86480F8E933E83360110460F003
:10044600ED33EC337009E8FCE9FDEAFEEBFF22042C
:1004560060DED3EB9FEA9EE99DE8C2E78CF0C2F727
:1004660095F0400CE8CCF8E9CDF9EACEFAEBCFFBF3
:100476001202BA85D0F05804700320D5B3E8047090
:10048600075002B2D50202F992D5EC0460F7E4CC2B
:10049600C0E0C398F8603B94186008400DD0E0FBBC
:1004A6000202D1E4FBFAC9FC8028E830E406E4C97C
:1004B600FBE4CAFCE830E305E4C9CACBFCE8540710
:1004C6006010F8C3E913F9EA13FAEB13FBEC13FC1B
:1004D600D8F130F52FC3E49CFCEF9BFFEE9AFEEDBE
:1004E60099FDD0E0FBEF4E4D4C701222DB03020269
:1004F600F6EC2CFCEF33FFEE33FEED33FDED30E78B
:10050600EB0202D1EF2BFFEE3AFEED39FDD0E0FB18
:1005160050130BBB00030202F9ED13FDEE13FEEFC1
:0805260013FFEC13FC0202D1EB
:10052E003F8000004120000042C80000447A0000D5
:10053E00461C400047C35000497424004B18968057
:10054E004CBEBC205A0E1BCA6753C21C749DC5AE4E
:10055E00FB60065407601C232312058CEB54386095
:10056E0009120578120587120026ECF8EDF9EEFA5D
:10057E00EFCB22EB12058780F1543803241C900533
:10058E002EFE93FC0EEE93FD0EEE930ECE93FF22F7
:1010150002120AE493A3F8E493A34003F68001F2D5
:1010250008DFF48029E493A3F85407240CC8C333DC
:10103500C4540F4420C8834004F456800146F6DFAB
:10104500E4800B0102040810204080901111E47E19
:10105500019360BCA3FF543F30E509541FFEE493A0
:10106500A360010ECF54C025E060A840B8E493A367
:10107500FAE493A3F8E493A3C8C582C8CAC583CA92
:10108500F0A3C8C582C8CAC583CADFE9DEE780BE4A
:011178000076
:10059E00BB010689828A83E0225002E722BBFE025B
:0905AE00E32289828A83E493228E
:1005B700BB010CE58229F582E5833AF583E02250F9
:1005C70006E92582F8E622BBFE06E92582F8E22243
:0D05D700E58229F582E5833AF583E493225D
:1005E400BB010689828A83F0225002F722BBFE01F6
:0205F400F322F0
:1005F600BC000BBE0029EF8DF084FFADF022E4CCE9
:10060600F875F008EF2FFFEE33FEEC33FCEE9DECB1
:10061600984005FCEE9DFE0FD5F0E9E4CEFD22EDF7
:10062600F8F5F0EE8420D21CFEADF075F008EF2F41
:10063600FFED33FD4007985006D5F0F222C398FD32
:050646000FD5F0EA22CF
:0E064B00C3E49FFFE49EFEE49DFDE49CFC22C0
:10065900FAE6FB0808E6F925F0F618E6CA3AF622A2
:10066900D083D082F8E4937012740193700DA3A320
:1006790093F8740193F5828883E473740293686034
:06068900EFA3A3A380DF34
:10145900EFB40A07740D121464740A309811A8992C
:10146900B8130CC2983098FDA899C298B811F630F3
:0714790099FDC299F59922CB
:00000001FF
