:030000000200F407
:0C00F400787FE4F6D8FD75811502013B11
:0A029B00C0F9A4B0999282F8809097
:10025200080BFFFFFFFFFFFFFFFF02130000020971
:0502620000000108008E
:0B0290001202781202381201D580FB28
:10023800758CFF758AFF758D3C758AB0758916D2E5
:0A024800A9D2ABD2AFD28CD28E2225
:03000B0002000EE2
:0D000E00C0E00514E51470020513D0E032C7
:03001B000201FEE1
:1001FE00C0E0758D3C758AB00508E5086414700C76
:0F020E0085130985140AF513F514F508D0E032AD
:0C02780090800074FFF090A000E4F022E1
:10001E00750B8ED3E50A940FE5099427401BAE09A4
:10002E00AF0A7C277D10120180749B2FF58274021B
:10003E003EF583E493F50E8003750EFFD3E50A9427
:10004E00E7E50994034022AE09AF0A7C037DE8126E
:10005E0001807C007D0A120180749B2DF582740252
:10006E003CF583E493F50F8003750FFFD3E50A94F7
:10007E0063E50994004022AE09AF0A7C007D64124C
:10008E0001807C007D0A120180749B2DF582740222
:10009E003CF583E493F51080037510FFD3E50A94C5
:1000AE0009E50994004022AE09AF0A7C007D0A12D0
:1000BE0001807C007D0A120180749B2DF5827402F2
:1000CE003CF583E493F51180037511FFAE09AF0A79
:1000DE007C007D0A120180749B2DF58274023CF522
:0600EE0083E493F51222E9
:10021D0090E00074FFF0A8077401088002C333D882
:0B022D00FC90C000F090E000EDF0221B
:1001D50012001EE4F515C3E515940874809480504B
:1001E50013740B2515F8E6FDAF1512021D120284D6
:0901F500051580E27FFF0202689B
:1002680090E00074FFF090C000F090E000EFF02202
:0B0284000000007F0B7EBEDEFEDFFCF2
:01028F00224C
:10010000020290E493A3F8E493A34003F68001F283
:1001100008DFF48029E493A3F85407240CC8C33300
:10012000C4540F4420C8834004F456800146F6DFCF
:10013000E4800B0102040810204080900252E47E0B
:10014000019360BCA3FF543F30E509541FFEE493C4
:10015000A360010ECF54C025E060A840B8E493A38B
:10016000FAE493A3F8E493A3C8C582C8CAC583CAB6
:10017000F0A3C8C582C8CAC583CADFE9DEE780BE6E
:010267000096
:10018000BC000BBE0029EF8DF084FFADF022E4CC63
:10019000F875F008EF2FFFEE33FEEC33FCEE9DEC2C
:1001A000984005FCEE9DFE0FD5F0E9E4CEFD22ED72
:1001B000F8F5F0EE8420D21CFEADF075F008EF2FBC
:1001C000FFED33FD4007985006D5F0F222C398FDAD
:0501D0000FD5F0EA224A
:00000001FF
