:030000000200AC4F
:0C00AC00787FE4F6D8FD7581090200F3AE
:060187000109110108113D
:10015E001201737F047E001201387580FF120003B6
:05016E0012018E80F873
:10013800EE701FEF24FB600E14600F146010240390
:10014800701075A0802275A0A02275A0C02275A08D
:06015800E02275A0002268
:0B0173007F057E00120138E4F58022B9
:08017E007F6C7E91DEFEDFFCC8
:010186002256
:04018E0085080922B5
:10000300E50914603024F160621460030200A4D295
:1000130080D28120B00C12017E20B00630B0FD7575
:10002300080130B1030200AB12017E20B17A30B176
:10003300FD75081022C280D28120B00C12017E20EF
:10004300B00630B0FD75081120B20E12017E20B249
:100053000830B2FD750801B28220B34C12017E2034
:10006300B34630B3FD750801B28322D280C281202A
:10007300B10C12017E20B10630B1FD75081120B21A
:100083000E12017E20B20830B2FD750810B2842032
:10009300B31612017E20B31030B3FD750810B2857C
:0900A30022D280D28175081122DD
:1000B80002015EE493A3F8E493A34003F68001F2FF
:1000C80008DFF48029E493A3F85407240CC8C33349
:1000D800C4540F4420C8834004F456800146F6DF18
:1000E800E4800B0102040810204080900187E47E20
:1000F800019360BCA3FF543F30E509541FFEE4930D
:10010800A360010ECF54C025E060A840B8E493A3D3
:10011800FAE493A3F8E493A3C8C582C8CAC583CAFE
:10012800F0A3C8C582C8CAC583CADFE9DEE780BEB6
:01018D000071
:00000001FF
