:03000000020026D5
:0C002600787FE4F6D8FD75811602006DAD
:1003B100C0F9A4B0999282F880908883C6A1868EF4
:100342000809FFFFFFFFFFFFFFFF01140001150077
:090352000113000111000112FF6A
:10035C0012000E1201DB12018712038E120323D23C
:09036C00AF1200B212022E80F85B
:0702B8005FF512F580E4FF81
:1002BF00EF24FB601314601914601F24037024E5EE
:1002CF00A0541F4480F5A022E5A0541F44A0F5A020
:1002DF0022E5A0541F44C0F5A022E5A0541F44E01E
:0702EF00F5A02253A01F221D
:10000E007F051202BFE4F5801F1202BF7580FFE468
:04001E00FF0202BF1C
:1001DB007F041202BFE4F516C3E5169408748094ED
:1001EB00805016AF16A80774FE088002C333D8FCE4
:1001FB00F58012037F051680DFE4F516C3E5169430
:10020B0008748094805017AF16A80774FE088002FC
:10021B00C333D8FCF4F58012037F051680DEE4FFB0
:03022B000202BF0D
:10018700E4F516C3E516940874809480501A7F0628
:100197001202BFAF16A80774FE088002C333D8FC4B
:1001A700F4120375051680DBE4F516C3E51694080B
:1001B7007480948050197F061202BFAF16A8077487
:1001C700FE088002C333D8FC120375051680DCE4F1
:0401D700FF0202BF62
:10038E00538E7F5389F0E4F58A758C4CC28DD2A9B9
:03039E00D28C22DC
:1003230053877F759850438E40538EFE53890F43F6
:0F0333008920758BDC758DDCC2ABD2ACD28E22EB
:03000B000202F6F8
:1002F600C0E00511E511641470200513F511E5132E
:10030600643C70160515F513E515643C700C051470
:0D031600F515E51464647002F514D0E032B2
:1000B200E51475F00A849003B193F509E51475F01F
:1000C2000A84E5F093F50A750BBFE51575F00A840D
:1000D20093F50CE51575F00A84E5F093F50D750EB0
:1000E200BFE51375F00A8493F50FE51375F00A84E2
:1000F200E5F093F510E4F516C3E5169408748094C0
:100102008050287F061202BFAF16A807740108802C
:1001120002C333D8FCF5807F071202BF740925168B
:10012200F8E6F5801203C1051680CDE4FF0202BF96
:10022E0020B2201200B220B21A20B2051200B28003
:10023E00F87F041202BFE512F4447FFFE5124480FA
:10024E001202B820B3201200B220B31A20B3051246
:10025E0000B280F87F041202BFE512F444BFFFE53E
:07026E001244401202B82205
:0300230002027561
:10027500C0E0C0F0C083C082C0D075D000C000C04F
:1002850001C002C003C004C005C006C007309808FD
:10029500C298859908120132D007D006D005D0043E
:1002A500D003D002D001D000D0D0D082D083D0F0FE
:0302B500D0E03264
:0803A10075F00A84E5F02FFF5E
:0803A9008F993099FDC29922E1
:10013200E50854F064A070197F041202BFE5084478
:10014200F0F4FFE51254F04FF512F580E4FF0202DD
:10015200BFE50864B0702DE51475F00A84C454F04C
:10016200FFE5141203A1E51575F00A84C454F0FFEB
:10017200E5151203A1E51375F00A84C454F0FFE5F6
:05018200131203A1228D
:0A037500F5807F071202BFE4F58057
:0E037F0000007F057E347DC3DDFEDEFCDFFA6C
:01038D00224D
:0B03C1000000007F0B7EBEDEFEDFFCB4
:0103CC00220E
:1000320002035CE493A3F8E493A34003F68001F285
:1000420008DFF48029E493A3F85407240CC8C333CF
:10005200C4540F4420C8834004F456800146F6DF9E
:10006200E4800B0102040810204080900342E47EE9
:10007200019360BCA3FF543F30E509541FFEE49393
:10008200A360010ECF54C025E060A840B8E493A35A
:10009200FAE493A3F8E493A3C8C582C8CAC583CA85
:1000A200F0A3C8C582C8CAC583CADFE9DEE780BE3D
:01035B0000A1
:00000001FF
